{"abi":[{"type":"constructor","inputs":[],"stateMutability":"nonpayable"},{"type":"function","name":"cancelOwnershipHandover","inputs":[],"outputs":[],"stateMutability":"payable"},{"type":"function","name":"completeOwnershipHandover","inputs":[{"name":"pendingOwner","type":"address","internalType":"address"}],"outputs":[],"stateMutability":"payable"},{"type":"function","name":"eip712Domain","inputs":[],"outputs":[{"name":"fields","type":"bytes1","internalType":"bytes1"},{"name":"name","type":"string","internalType":"string"},{"name":"version","type":"string","internalType":"string"},{"name":"chainId","type":"uint256","internalType":"uint256"},{"name":"verifyingContract","type":"address","internalType":"address"},{"name":"salt","type":"bytes32","internalType":"bytes32"},{"name":"extensions","type":"uint256[]","internalType":"uint256[]"}],"stateMutability":"view"},{"type":"function","name":"fetchQueuedWithdrawals","inputs":[{"name":"staker","type":"address","internalType":"address"}],"outputs":[{"name":"queuedWithdrawals","type":"tuple[]","internalType":"struct Withdraw.QueuedWithdrawal[]","components":[{"name":"staker","type":"address","internalType":"address"},{"name":"delegatedTo","type":"address","internalType":"address"},{"name":"nonce","type":"uint256","internalType":"uint256"},{"name":"start","type":"uint256","internalType":"uint256"},{"name":"request","type":"tuple","internalType":"struct Withdraw.WithdrawRequest","components":[{"name":"vaults","type":"address[]","internalType":"contract IVault[]"},{"name":"shares","type":"uint256[]","internalType":"uint256[]"},{"name":"withdrawer","type":"address","internalType":"address"}]}]}],"stateMutability":"view"},{"type":"function","name":"finishWithdraw","inputs":[{"name":"startedWithdrawals","type":"tuple[]","internalType":"struct Withdraw.QueuedWithdrawal[]","components":[{"name":"staker","type":"address","internalType":"address"},{"name":"delegatedTo","type":"address","internalType":"address"},{"name":"nonce","type":"uint256","internalType":"uint256"},{"name":"start","type":"uint256","internalType":"uint256"},{"name":"request","type":"tuple","internalType":"struct Withdraw.WithdrawRequest","components":[{"name":"vaults","type":"address[]","internalType":"contract IVault[]"},{"name":"shares","type":"uint256[]","internalType":"uint256[]"},{"name":"withdrawer","type":"address","internalType":"address"}]}]}],"outputs":[],"stateMutability":"nonpayable"},{"type":"function","name":"grantRoles","inputs":[{"name":"user","type":"address","internalType":"address"},{"name":"roles","type":"uint256","internalType":"uint256"}],"outputs":[],"stateMutability":"payable"},{"type":"function","name":"hasAllRoles","inputs":[{"name":"user","type":"address","internalType":"address"},{"name":"roles","type":"uint256","internalType":"uint256"}],"outputs":[{"name":"","type":"bool","internalType":"bool"}],"stateMutability":"view"},{"type":"function","name":"hasAnyRole","inputs":[{"name":"user","type":"address","internalType":"address"},{"name":"roles","type":"uint256","internalType":"uint256"}],"outputs":[{"name":"","type":"bool","internalType":"bool"}],"stateMutability":"view"},{"type":"function","name":"initialize","inputs":[{"name":"vaultManager","type":"address","internalType":"address"},{"name":"minWithdrawDelay","type":"uint256","internalType":"uint256"},{"name":"manager","type":"address","internalType":"address"}],"outputs":[],"stateMutability":"nonpayable"},{"type":"function","name":"isWithdrawPending","inputs":[{"name":"withdrawal","type":"tuple","internalType":"struct Withdraw.QueuedWithdrawal","components":[{"name":"staker","type":"address","internalType":"address"},{"name":"delegatedTo","type":"address","internalType":"address"},{"name":"nonce","type":"uint256","internalType":"uint256"},{"name":"start","type":"uint256","internalType":"uint256"},{"name":"request","type":"tuple","internalType":"struct Withdraw.WithdrawRequest","components":[{"name":"vaults","type":"address[]","internalType":"contract IVault[]"},{"name":"shares","type":"uint256[]","internalType":"uint256[]"},{"name":"withdrawer","type":"address","internalType":"address"}]}]}],"outputs":[{"name":"","type":"bool","internalType":"bool"}],"stateMutability":"view"},{"type":"function","name":"owner","inputs":[],"outputs":[{"name":"result","type":"address","internalType":"address"}],"stateMutability":"view"},{"type":"function","name":"ownershipHandoverExpiresAt","inputs":[{"name":"pendingOwner","type":"address","internalType":"address"}],"outputs":[{"name":"result","type":"uint256","internalType":"uint256"}],"stateMutability":"view"},{"type":"function","name":"pause","inputs":[{"name":"toPause","type":"bool","internalType":"bool"}],"outputs":[],"stateMutability":"nonpayable"},{"type":"function","name":"paused","inputs":[],"outputs":[{"name":"","type":"bool","internalType":"bool"}],"stateMutability":"view"},{"type":"function","name":"proxiableUUID","inputs":[],"outputs":[{"name":"","type":"bytes32","internalType":"bytes32"}],"stateMutability":"view"},{"type":"function","name":"renounceOwnership","inputs":[],"outputs":[],"stateMutability":"payable"},{"type":"function","name":"renounceRoles","inputs":[{"name":"roles","type":"uint256","internalType":"uint256"}],"outputs":[],"stateMutability":"payable"},{"type":"function","name":"requestOwnershipHandover","inputs":[],"outputs":[],"stateMutability":"payable"},{"type":"function","name":"revokeRoles","inputs":[{"name":"user","type":"address","internalType":"address"},{"name":"roles","type":"uint256","internalType":"uint256"}],"outputs":[],"stateMutability":"payable"},{"type":"function","name":"rolesOf","inputs":[{"name":"user","type":"address","internalType":"address"}],"outputs":[{"name":"roles","type":"uint256","internalType":"uint256"}],"stateMutability":"view"},{"type":"function","name":"startWithdraw","inputs":[{"name":"withdrawalRequests","type":"tuple[]","internalType":"struct Withdraw.WithdrawRequest[]","components":[{"name":"vaults","type":"address[]","internalType":"contract IVault[]"},{"name":"shares","type":"uint256[]","internalType":"uint256[]"},{"name":"withdrawer","type":"address","internalType":"address"}]}],"outputs":[{"name":"withdrawalRoots","type":"bytes32[]","internalType":"bytes32[]"},{"name":"withdrawConfigs","type":"tuple[]","internalType":"struct Withdraw.QueuedWithdrawal[]","components":[{"name":"staker","type":"address","internalType":"address"},{"name":"delegatedTo","type":"address","internalType":"address"},{"name":"nonce","type":"uint256","internalType":"uint256"},{"name":"start","type":"uint256","internalType":"uint256"},{"name":"request","type":"tuple","internalType":"struct Withdraw.WithdrawRequest","components":[{"name":"vaults","type":"address[]","internalType":"contract IVault[]"},{"name":"shares","type":"uint256[]","internalType":"uint256[]"},{"name":"withdrawer","type":"address","internalType":"address"}]}]}],"stateMutability":"nonpayable"},{"type":"function","name":"transferOwnership","inputs":[{"name":"newOwner","type":"address","internalType":"address"}],"outputs":[],"stateMutability":"payable"},{"type":"function","name":"updateWithdrawDelay","inputs":[{"name":"delay","type":"uint256","internalType":"uint256"}],"outputs":[],"stateMutability":"nonpayable"},{"type":"function","name":"upgradeToAndCall","inputs":[{"name":"newImplementation","type":"address","internalType":"address"},{"name":"data","type":"bytes","internalType":"bytes"}],"outputs":[],"stateMutability":"payable"},{"type":"function","name":"withdrawalDelay","inputs":[],"outputs":[{"name":"","type":"uint256","internalType":"uint256"}],"stateMutability":"view"},{"type":"event","name":"EIP712DomainChanged","inputs":[],"anonymous":false},{"type":"event","name":"FinishedWithdrawal","inputs":[{"name":"vault","type":"address","indexed":true,"internalType":"address"},{"name":"staker","type":"address","indexed":true,"internalType":"address"},{"name":"operator","type":"address","indexed":true,"internalType":"address"},{"name":"withdrawer","type":"address","indexed":false,"internalType":"address"},{"name":"shares","type":"uint256","indexed":false,"internalType":"uint256"},{"name":"withdrawRoot","type":"bytes32","indexed":false,"internalType":"bytes32"}],"anonymous":false},{"type":"event","name":"Initialized","inputs":[{"name":"version","type":"uint64","indexed":false,"internalType":"uint64"}],"anonymous":false},{"type":"event","name":"OwnershipHandoverCanceled","inputs":[{"name":"pendingOwner","type":"address","indexed":true,"internalType":"address"}],"anonymous":false},{"type":"event","name":"OwnershipHandoverRequested","inputs":[{"name":"pendingOwner","type":"address","indexed":true,"internalType":"address"}],"anonymous":false},{"type":"event","name":"OwnershipTransferred","inputs":[{"name":"oldOwner","type":"address","indexed":true,"internalType":"address"},{"name":"newOwner","type":"address","indexed":true,"internalType":"address"}],"anonymous":false},{"type":"event","name":"Paused","inputs":[{"name":"account","type":"address","indexed":false,"internalType":"address"}],"anonymous":false},{"type":"event","name":"RolesUpdated","inputs":[{"name":"user","type":"address","indexed":true,"internalType":"address"},{"name":"roles","type":"uint256","indexed":true,"internalType":"uint256"}],"anonymous":false},{"type":"event","name":"StartedWithdrawal","inputs":[{"name":"vault","type":"address","indexed":true,"internalType":"address"},{"name":"staker","type":"address","indexed":true,"internalType":"address"},{"name":"operator","type":"address","indexed":true,"internalType":"address"},{"name":"withdrawer","type":"address","indexed":false,"internalType":"address"},{"name":"shares","type":"uint256","indexed":false,"internalType":"uint256"}],"anonymous":false},{"type":"event","name":"Unpaused","inputs":[{"name":"account","type":"address","indexed":false,"internalType":"address"}],"anonymous":false},{"type":"event","name":"Upgraded","inputs":[{"name":"implementation","type":"address","indexed":true,"internalType":"address"}],"anonymous":false},{"type":"error","name":"AlreadyInitialized","inputs":[]},{"type":"error","name":"ArrayLengthsNotEqual","inputs":[]},{"type":"error","name":"EnforcedPause","inputs":[]},{"type":"error","name":"ExpectedPause","inputs":[]},{"type":"error","name":"InvalidInitialization","inputs":[]},{"type":"error","name":"InvalidInput","inputs":[]},{"type":"error","name":"InvalidWithdrawalDelay","inputs":[]},{"type":"error","name":"MinWithdrawDelayNotPassed","inputs":[]},{"type":"error","name":"NewOwnerIsZeroAddress","inputs":[]},{"type":"error","name":"NoElementsInArray","inputs":[]},{"type":"error","name":"NoHandoverRequest","inputs":[]},{"type":"error","name":"NotInitializing","inputs":[]},{"type":"error","name":"NotStaker","inputs":[]},{"type":"error","name":"Reentrancy","inputs":[]},{"type":"error","name":"Unauthorized","inputs":[]},{"type":"error","name":"UnauthorizedCallContext","inputs":[]},{"type":"error","name":"UpgradeFailed","inputs":[]},{"type":"error","name":"WithdrawAlreadyCompleted","inputs":[]},{"type":"error","name":"WithdrawerNotCaller","inputs":[]},{"type":"error","name":"ZeroShares","inputs":[]}],"bytecode":{"object":"0x60a0806040523460c857306080527ff0c57e16840df040f15088dc2f81fe391c3923bec73e23a9662efc9c229c6a009081549060ff8260401c1660b957506001600160401b036002600160401b0319828216016075575b604051612cc990816100ce8239608051818181611f5301526120370152f35b6001600160401b031990911681179091556040519081527fc7f505b2f371ae2175ee4913f4499e1f2633a7b5936321eed1cdaeb6115181d290602090a13880806056565b63f92ee8a960e01b8152600490fd5b600080fdfe6080604052600436101561001257600080fd5b60003560e01c806302329a291461233a578063118f6726146122f0578063183a4f6e146122d85780631c10893f146122765780631cd64df41461223c57806325692962146121f05780632de94807146121bd5780634618c9741461213f5780634a4ee7b1146121155780634f1ef28614611fe8578063514e62fc14611faf57806352d1902d14611f3f57806354d1f13d14611ef75780635c975abb14611eb5578063715018a614611e5457806384b0196e14611b0057806386e9a1f7146117275780638c475559146115165780638da5cb5b146114c357806392dca40714610b15578063a7ab696114610ad8578063c350a1b5146102a6578063f04e283e146101fc578063f2fde38b146101675763fee81cf41461012f57600080fd5b3461016257602060031936011261016257610148612488565b63389a75e1600c52600052602080600c2054604051908152f35b600080fd5b60206003193601126101625761017b612488565b610183612a78565b8060601b156101ee5773ffffffffffffffffffffffffffffffffffffffff167fffffffffffffffffffffffffffffffffffffffffffffffffffffffff748739278181547f8be0079c531659141344cd1fd0a4f28419497f9722a3daafe3b4186f6b6457e0600080a355005b637448fbae6000526004601cfd5b602060031936011261016257610210612488565b610218612a78565b63389a75e1600c52806000526020600c20908154421161029857600073ffffffffffffffffffffffffffffffffffffffff9255167fffffffffffffffffffffffffffffffffffffffffffffffffffffffff748739278181547f8be0079c531659141344cd1fd0a4f28419497f9722a3daafe3b4186f6b6457e0600080a355005b636f5e88186000526004601cfd5b34610162576060600319360112610162576102bf612488565b73ffffffffffffffffffffffffffffffffffffffff6044351660443503610162577ff0c57e16840df040f15088dc2f81fe391c3923bec73e23a9662efc9c229c6a0090815467ffffffffffffffff811680159081610ac8575b6001149081610abe575b159081610ab5575b50610a8b5760017fffffffffffffffffffffffffffffffffffffffffffffffff0000000000000000821617835560ff8160401c1615610a56575b337fffffffffffffffffffffffffffffffffffffffffffffffffffffffff74873927553360007f8be0079c531659141344cd1fd0a4f28419497f9722a3daafe3b4186f6b6457e08180a36103b6612c3a565b6103be612c3a565b7fcd5ed15c6e187e77e9aee88184c21f4f2182ab5827cb3b7e07fbedcd63f033007fffffffffffffffffffffffffffffffffffffffffffffffffffffffffffffff0081541690556040516104118161272a565b601281527f4d61645f44656c65676174696f6e5f53757000000000000000000000000000006020820152604051906104488261272a565b600282527f7631000000000000000000000000000000000000000000000000000000000000602083015261047a612c3a565b610482612c3a565b80519067ffffffffffffffff821161088c5781906104c07fa16a46d94261c7517cc8ff89f61c0ce93598e3c849801011dee649a6a557d10254612aff565b601f81116109e8575b50602090601f83116001146108c6576000926108bb575b50507fffffffffffffffffffffffffffffffffffffffffffffffffffffffffffffffff8260011b9260031b1c1916177fa16a46d94261c7517cc8ff89f61c0ce93598e3c849801011dee649a6a557d102555b805167ffffffffffffffff811161088c57807fa16a46d94261c7517cc8ff89f61c0ce93598e3c849801011dee649a6a557d103926105708454612aff565b601f8111610833575b50602090601f83116001146107765760009261076b575b50507fffffffffffffffffffffffffffffffffffffffffffffffffffffffffffffffff8260011b9260031b1c19161790555b60007fa16a46d94261c7517cc8ff89f61c0ce93598e3c849801011dee649a6a557d1005560007fa16a46d94261c7517cc8ff89f61c0ce93598e3c849801011dee649a6a557d10155638b78c6d8600c526044356000526020600c206001815417809155600c5160601c7f715ad5ce61fc9595c7b415289d59cf203f23a94fa06f04af7e489a0a76e1fe26600080a362278d00602435116107415760ff916024357fb0b02f0ecb09a6e798b0f902b13ac86c2c157da412a7f4294fa1ae79336f77035573ffffffffffffffffffffffffffffffffffffffff7fb0b02f0ecb09a6e798b0f902b13ac86c2c157da412a7f4294fa1ae79336f770491167fffffffffffffffffffffffff000000000000000000000000000000000000000082541617905560401c16156106ee57005b7fffffffffffffffffffffffffffffffffffffffffffffff00ffffffffffffffff81541690557fc7f505b2f371ae2175ee4913f4499e1f2633a7b5936321eed1cdaeb6115181d2602060405160018152a1005b60046040517f796571ae000000000000000000000000000000000000000000000000000000008152fd5b015190508680610590565b60008581527f5f9ce34815f8e11431c7bb75a8e6886a91478f7ffc1dbb0a98dc240fddd76b75937fffffffffffffffffffffffffffffffffffffffffffffffffffffffffffffffe016905b81811061081b57509084600195949392106107e4575b505050811b0190556105c2565b01517fffffffffffffffffffffffffffffffffffffffffffffffffffffffffffffffff60f88460031b161c191690558680806107d7565b929360206001819287860151815501950193016107c1565b61087c90856000527f5f9ce34815f8e11431c7bb75a8e6886a91478f7ffc1dbb0a98dc240fddd76b75601f850160051c81019160208610610882575b601f0160051c0190612bb7565b87610579565b909150819061086f565b7f4e487b7100000000000000000000000000000000000000000000000000000000600052604160045260246000fd5b0151905086806104e0565b92507fa16a46d94261c7517cc8ff89f61c0ce93598e3c849801011dee649a6a557d1026000527f42ad5d3e1f2e6e70edcf6d991b8a3023d3fca8047a131592f9edb9fd9b89d57d906000935b7fffffffffffffffffffffffffffffffffffffffffffffffffffffffffffffffe0841685106109cd5760019450837fffffffffffffffffffffffffffffffffffffffffffffffffffffffffffffffe0811610610996575b505050811b017fa16a46d94261c7517cc8ff89f61c0ce93598e3c849801011dee649a6a557d10255610532565b01517fffffffffffffffffffffffffffffffffffffffffffffffffffffffffffffffff60f88460031b161c19169055868080610969565b81810151835560209485019460019093019290910190610912565b610a50907fa16a46d94261c7517cc8ff89f61c0ce93598e3c849801011dee649a6a557d1026000527f42ad5d3e1f2e6e70edcf6d991b8a3023d3fca8047a131592f9edb9fd9b89d57d601f850160051c8101916020861061088257601f0160051c0190612bb7565b876104c9565b680100000000000000017fffffffffffffffffffffffffffffffffffffffffffffff0000000000000000008216178355610364565b60046040517ff92ee8a9000000000000000000000000000000000000000000000000000000008152fd5b9050158461032a565b303b159150610322565b604083901c60ff16159150610318565b346101625760006003193601126101625760207fb0b02f0ecb09a6e798b0f902b13ac86c2c157da412a7f4294fa1ae79336f770354604051908152f35b346101625760206003193601126101625760043567ffffffffffffffff811161016257610b4690369060040161255e565b3068929eee149b4bd2126854146114b5573068929eee149b4bd2126855610b6b612b52565b801561148b57610b7a81612787565b91610b886040519384612746565b818352610b9482612787565b917fffffffffffffffffffffffffffffffffffffffffffffffffffffffffffffffe0809301366020860137610bc881612787565b92610bd66040519485612746565b818452610be282612787565b0160005b81811061147457505073ffffffffffffffffffffffffffffffffffffffff610c4d3373ffffffffffffffffffffffffffffffffffffffff166000527fb0b02f0ecb09a6e798b0f902b13ac86c2c157da412a7f4294fa1ae79336f7702602052604060002090565b5416906000925b818410610cbb5785853868929eee149b4bd2126855604051906040820160408352835180915260206060840194019060005b818110610ca5578480610ca188878382036020850152612663565b0390f35b8251865260209586019590920191600101610c86565b9091929493610ccb8684846129b9565b60208101610cd981836129f4565b9050158015611461575b61143757610cf190826129f4565b9050610cfd82806129f4565b9190500361140d5773ffffffffffffffffffffffffffffffffffffffff610d2760403393016129d3565b16036113e35785610d476040610d41610d8c9987876129b9565b016129d3565b93610d5c610d568383876129b9565b806129f4565b610d84610d7a610d7086868a9e969e6129b9565b60208101906129f4565b9b9092369161279f565b99369161280a565b93610d9561293a565b5060005b8951811015610f4d57610dac8187612a48565b5115610f235773ffffffffffffffffffffffffffffffffffffffff7fb0b02f0ecb09a6e798b0f902b13ac86c2c157da412a7f4294fa1ae79336f770454169073ffffffffffffffffffffffffffffffffffffffff610e0a828d612a48565b5116610e168289612a48565b51833b15610162576040517f8c80d4e500000000000000000000000000000000000000000000000000000000815233600482015273ffffffffffffffffffffffffffffffffffffffff9290921660248301526044820152916000908390606490829084905af18015610f175773ffffffffffffffffffffffffffffffffffffffff610eac838e6001968e95610f08575b50612a48565b5116610eb8838a612a48565b51906040519173ffffffffffffffffffffffffffffffffffffffff8c16835260208301527f6ee63f530864567ac8a1fcce5050111457154b213c6297ffc622603e8497f7b260403393a401610d99565b610f11906126de565b38610ea6565b6040513d6000823e3d90fd5b60046040517f9811e0c7000000000000000000000000000000000000000000000000000000008152fd5b509497909295936002610f9f3373ffffffffffffffffffffffffffffffffffffffff166000527fb0b02f0ecb09a6e798b0f902b13ac86c2c157da412a7f4294fa1ae79336f7702602052604060002090565b0154986002610fed3373ffffffffffffffffffffffffffffffffffffffff166000527fb0b02f0ecb09a6e798b0f902b13ac86c2c157da412a7f4294fa1ae79336f7702602052604060002090565b01918254927fffffffffffffffffffffffffffffffffffffffffffffffffffffffffffffffff84146113b457600173ffffffffffffffffffffffffffffffffffffffff94019055604051936110418561270e565b845260208401521660408201526040519761105b896126f2565b3389528460208a01526040890152426060890152608088015261107d87612ab0565b806000527fb0b02f0ecb09a6e798b0f902b13ac86c2c157da412a7f4294fa1ae79336f7700602052604060002060017fffffffffffffffffffffffffffffffffffffffffffffffffffffffffffffff00825416179055600361111e3373ffffffffffffffffffffffffffffffffffffffff166000527fb0b02f0ecb09a6e798b0f902b13ac86c2c157da412a7f4294fa1ae79336f7702602052604060002090565b0197885498680100000000000000008a101561088c5760018a018082558a101561138557600052602060002073ffffffffffffffffffffffffffffffffffffffff8251167fffffffffffffffffffffffff000000000000000000000000000000000000000060078c02830154161760078b02820155600160078b0282010173ffffffffffffffffffffffffffffffffffffffff6020840151167fffffffffffffffffffffffff00000000000000000000000000000000000000008254161790556040820151600260078c02830101556060820151600360078c0283010155608082015190815180519067ffffffffffffffff821161088c5768010000000000000000821161088c576004600760208f9361124f86858588028a0101548187878a028c010155868689028b0101612bce565b019202840101600052602060002060005b83811061135b575050505060208201519a8b519b67ffffffffffffffff8d1161088c57680100000000000000008d1161088c5760078202830160050180548e82558e9260209290916112b491859190612bce565b01600560078402850101600052602060002060009e8f5b10611344575050506001969798999a9b50600673ffffffffffffffffffffffffffffffffffffffff926007604093020101920151167fffffffffffffffffffffffff00000000000000000000000000000000000000008254161790556113318389612a48565b5261133c8289612a48565b520192610c54565b6001839f6020845194019381840155019e8f6112cb565b600190602073ffffffffffffffffffffffffffffffffffffffff8551169401938184015501611260565b7f4e487b7100000000000000000000000000000000000000000000000000000000600052603260045260246000fd5b7f4e487b7100000000000000000000000000000000000000000000000000000000600052601160045260246000fd5b60046040517f59cc8a2f000000000000000000000000000000000000000000000000000000008152fd5b60046040517f440de63f000000000000000000000000000000000000000000000000000000008152fd5b60046040517fa4f8591d000000000000000000000000000000000000000000000000000000008152fd5b5061146c82806129f4565b905015610ce3565b60209061147f61293a565b82828801015201610be6565b60046040517fb4fa3fb3000000000000000000000000000000000000000000000000000000008152fd5b63ab143c066000526004601cfd5b346101625760006003193601126101625760207fffffffffffffffffffffffffffffffffffffffffffffffffffffffff748739275473ffffffffffffffffffffffffffffffffffffffff60405191168152f35b34610162576020600319360112610162576003611579611534612488565b73ffffffffffffffffffffffffffffffffffffffff166000527fb0b02f0ecb09a6e798b0f902b13ac86c2c157da412a7f4294fa1ae79336f7702602052604060002090565b01805461158581612787565b906115936040519283612746565b808252602082019260005260206000206000935b8285106115c45760405160208082528190610ca190820187612663565b6040516115d0816126f2565b73ffffffffffffffffffffffffffffffffffffffff8354168152600173ffffffffffffffffffffffffffffffffffffffff8185015416602083015260028401546040830152600384015460608301526004840190604051916116318361270e565b604051808260208294549384815201906000526020600020926000905b868183106116f75750505061166592500382612746565b8252600585016040519182602083549182815201926000526020600020916000915b8083106116df575050505092602092826116a8600197946007970382612746565b8482015273ffffffffffffffffffffffffffffffffffffffff600688015416604082015260808201528152019201940193906115a7565b90806020859682959654815201950193019190611687565b919350916020829173ffffffffffffffffffffffffffffffffffffffff875416815201940192018492939161164e565b34610162576020806003193601126101625760043567ffffffffffffffff81116101625761175990369060040161255e565b68929eee149b4bd212689291308454146114b557909130845561177a612b52565b6000925b80841061178a57388555005b836005959394951b8401357fffffffffffffffffffffffffffffffffffffffffffffffffffffffffffffff6185360301811215610162578401906117d66117d13684612858565b612ab0565b608083019273ffffffffffffffffffffffffffffffffffffffff9233846118026040610d418987612986565b1603611ad657606096878301357fb0b02f0ecb09a6e798b0f902b13ac86c2c157da412a7f4294fa1ae79336f77035481018091116113b4574210611aac57836000527fb0b02f0ecb09a6e798b0f902b13ac86c2c157da412a7f4294fa1ae79336f770080885260ff6040600020541615611a825760008581529088526040812080547fffffffffffffffffffffffffffffffffffffffffffffffffffffffffffffff001690558388019992905b6118bc610d568987612986565b9050811015611a6c5784886119268361190b8d61191d6119166119118f61190b610d568a89937fb0b02f0ecb09a6e798b0f902b13ac86c2c157da412a7f4294fa1ae79336f770454169c612986565b90612ba7565b6129d3565b958c612986565b908101906129f4565b35823b15610162576040517f51ffb74a00000000000000000000000000000000000000000000000000000000815233600482015273ffffffffffffffffffffffffffffffffffffffff9290921660248301526044820152906000908290606490829084905af1908115610f17578a8a8a8f948f94876119b0858e8695948695611a5d575b50612986565b806119ba916129f4565b6119c49291612ba7565b6119cd906129d3565b16936119d88c6129d3565b966119e2906129d3565b90888d6119ef8782612986565b6040016119fb906129d3565b96611a0591612986565b828101611a11916129f4565b611a1b9291612ba7565b359083604051961686528501528c6040850152169416927f486508c3c40ef7985dcc1f7d43acb1e77e0059505d1f0e6064674ca655a0c82f91a46001016118af565b611a66906126de565b386119aa565b5090996001019850909650935061177e92505050565b60046040517f35a34c35000000000000000000000000000000000000000000000000000000008152fd5b60046040517f4b90bbc2000000000000000000000000000000000000000000000000000000008152fd5b60046040517f584434d4000000000000000000000000000000000000000000000000000000008152fd5b34610162576000600319360112610162577fa16a46d94261c7517cc8ff89f61c0ce93598e3c849801011dee649a6a557d100541580611e2b575b15611dcd576040517fa16a46d94261c7517cc8ff89f61c0ce93598e3c849801011dee649a6a557d102805491600081611b7285612aff565b9182825260209460019686600182169182600014611d8f575050600114611d31575b50611ba192500382612746565b604051928360007fa16a46d94261c7517cc8ff89f61c0ce93598e3c849801011dee649a6a557d10392835493611bd685612aff565b9485855287600182169182600014611cf0575050600114611c94575b5050611c0092500384612746565b6040518281019181831067ffffffffffffffff84111761088c5760e094611c65611c7392610ca195604052600085526040519788977f0f00000000000000000000000000000000000000000000000000000000000000895288015260e08701906124cc565b9085820360408701526124cc565b90466060850152306080850152600060a085015283820360c085015261252a565b8692506000527f5f9ce34815f8e11431c7bb75a8e6886a91478f7ffc1dbb0a98dc240fddd76b75906000915b858310611cd8575050611c0093508201018680611bf2565b8054838a018501528894508793909201918101611cc0565b91509350611c009592507fffffffffffffffffffffffffffffffffffffffffffffffffffffffffffffff0091501682840152151560051b8201018680611bf2565b91505060005281837f42ad5d3e1f2e6e70edcf6d991b8a3023d3fca8047a131592f9edb9fd9b89d57d866000915b858310611d76575050611ba1935082010186611b94565b8091929450548385880101520191018490868593611d5f565b7fffffffffffffffffffffffffffffffffffffffffffffffffffffffffffffff001685820152611ba195151560051b8501019250889150611b949050565b60646040517f08c379a000000000000000000000000000000000000000000000000000000000815260206004820152601560248201527f4549503731323a20556e696e697469616c697a656400000000000000000000006044820152fd5b507fa16a46d94261c7517cc8ff89f61c0ce93598e3c849801011dee649a6a557d1015415611b3a565b600060031936011261016257611e68612a78565b60007fffffffffffffffffffffffffffffffffffffffffffffffffffffffff748739278181547f8be0079c531659141344cd1fd0a4f28419497f9722a3daafe3b4186f6b6457e08280a355005b3461016257600060031936011261016257602060ff7fcd5ed15c6e187e77e9aee88184c21f4f2182ab5827cb3b7e07fbedcd63f0330054166040519015158152f35b60006003193601126101625763389a75e1600c523360005260006020600c2055337ffa7b8eab7da67f412cc9575ed43464468f9bfbae89d1675917346ca6d8fe3c92600080a2005b3461016257600060031936011261016257307f000000000000000000000000000000000000000000000000000000000000000003611fa15760206040517f360894a13ba1a3210667c828492db98dca3e2076cc3735a920a3ca505d382bbc8152f35b639f03a0266000526004601cfd5b3461016257604060031936011261016257611fc8612488565b638b78c6d8600c52600052602060243581600c2054161515604051908152f35b604060031936011261016257611ffc612488565b6024359067ffffffffffffffff90818311610162573660238401121561016257826004013591821161016257366024838501011161016257307f000000000000000000000000000000000000000000000000000000000000000014611fa15773ffffffffffffffffffffffffffffffffffffffff90612079612a78565b166352d1902d6001527f360894a13ba1a3210667c828492db98dca3e2076cc3735a920a3ca505d382bbc80602060016004601d865afa510361210757818391817fbc7cd75a20ee27fd9adebab32041f755214dbc6bffa90cc0225b39da2e5c2d3b600080a2556120e557005b816000926024604051950185378338925af4156120fe57005b3d6000823e3d90fd5b6355299b496001526004601dfd5b60406003193601126101625761213d61212c612488565b612134612a78565b60243590612bf3565b005b3461016257600319602081360112610162576004359067ffffffffffffffff82116101625760a0908236030112610162576117d1612181913690600401612858565b6000527fb0b02f0ecb09a6e798b0f902b13ac86c2c157da412a7f4294fa1ae79336f7700602052602060ff604060002054166040519015158152f35b34610162576020600319360112610162576121d6612488565b638b78c6d8600c52600052602080600c2054604051908152f35b60006003193601126101625763389a75e1600c52336000526202a30042016020600c2055337fdbf36a107da19e49527a7176a1babf963b4b0ff8cde35ee35d6cd8f1f9ac7e1d600080a2005b34610162576040600319360112610162576020612257612488565b60243590638b78c6d8600c526000528082600c20541614604051908152f35b60406003193601126101625761228a612488565b612292612a78565b638b78c6d8600c526000526020600c20602435815417809155600c5160601c7f715ad5ce61fc9595c7b415289d59cf203f23a94fa06f04af7e489a0a76e1fe26600080a3005b60206003193601126101625761213d60043533612bf3565b346101625760206003193601126101625760043561230c612a5c565b62278d008111610741577fb0b02f0ecb09a6e798b0f902b13ac86c2c157da412a7f4294fa1ae79336f770355005b346101625760206003193601126101625760043580151581036101625761235f612a5c565b156123e25761236c612b52565b7fcd5ed15c6e187e77e9aee88184c21f4f2182ab5827cb3b7e07fbedcd63f0330060017fffffffffffffffffffffffffffffffffffffffffffffffffffffffffffffff008254161790557f62e78cea01bee320cd4e420270b5ea74000d11b0c9f74754ebdbfc544b05a2586020604051338152a1005b7fcd5ed15c6e187e77e9aee88184c21f4f2182ab5827cb3b7e07fbedcd63f03300805460ff81161561245e577fffffffffffffffffffffffffffffffffffffffffffffffffffffffffffffff001690557f5db9ee0a495bf2e6ff9c91a7834c1ba4fdd244a5e8aa4e537bd38aeae4b073aa6020604051338152a1005b60046040517f8dfc202b000000000000000000000000000000000000000000000000000000008152fd5b6004359073ffffffffffffffffffffffffffffffffffffffff8216820361016257565b359073ffffffffffffffffffffffffffffffffffffffff8216820361016257565b919082519283825260005b8481106125165750507fffffffffffffffffffffffffffffffffffffffffffffffffffffffffffffffe0601f8460006020809697860101520116010190565b6020818301810151848301820152016124d7565b90815180825260208080930193019160005b82811061254a575050505090565b83518552938101939281019260010161253c565b9181601f840112156101625782359167ffffffffffffffff8311610162576020808501948460051b01011161016257565b919073ffffffffffffffffffffffffffffffffffffffff90818451168152608060209483868201511686840152604081015160408401526060810151606084015201519160a06080830152610100820194835195606060a0850152865180915281610120850197019060005b81811061264d5750505061264384959660409260e0959601517fffffffffffffffffffffffffffffffffffffffffffffffffffffffffffffff608783030160c088015261252a565b9401511691015290565b82518516895297830197918301916001016125fb565b90808251908181526020809101926020808460051b8301019501936000915b8483106126925750505050505090565b90919293949584806126ce837fffffffffffffffffffffffffffffffffffffffffffffffffffffffffffffffe086600196030187528a5161258f565b9801930193019194939290612682565b67ffffffffffffffff811161088c57604052565b60a0810190811067ffffffffffffffff82111761088c57604052565b6060810190811067ffffffffffffffff82111761088c57604052565b6040810190811067ffffffffffffffff82111761088c57604052565b90601f7fffffffffffffffffffffffffffffffffffffffffffffffffffffffffffffffe0910116810190811067ffffffffffffffff82111761088c57604052565b67ffffffffffffffff811161088c5760051b60200190565b92916127aa82612787565b916127b86040519384612746565b829481845260208094019160051b810192831161016257905b8282106127de5750505050565b813573ffffffffffffffffffffffffffffffffffffffff811681036101625781529083019083016127d1565b929161281582612787565b916128236040519384612746565b829481845260208094019160051b810192831161016257905b8282106128495750505050565b8135815290830190830161283c565b91909160a081840312610162576040928351612873816126f2565b809461287e846124ab565b825260209261288e8486016124ab565b84840152818501358284015260608501356060840152608085013567ffffffffffffffff95868211610162570190606082820312610162578251956128d28761270e565b823581811161016257830182601f82011215610162578281886128f79335910161279f565b8752858301359081116101625782019181601f8401121561016257856129288593856080996129329735910161280a565b90880152016124ab565b908401520152565b60405190612947826126f2565b81600081526000602082015260006040820152600060608201526080604051916129708361270e565b6060835260606020840152600060408401520152565b9035907fffffffffffffffffffffffffffffffffffffffffffffffffffffffffffffffa181360301821215610162570190565b90821015611385576129d09160051b810190612986565b90565b3573ffffffffffffffffffffffffffffffffffffffff811681036101625790565b9035907fffffffffffffffffffffffffffffffffffffffffffffffffffffffffffffffe181360301821215610162570180359067ffffffffffffffff821161016257602001918160051b3603831361016257565b80518210156113855760209160051b010190565b638b78c6d8600c523360005260016020600c20541615612a7857565b7fffffffffffffffffffffffffffffffffffffffffffffffffffffffff74873927543303612aa257565b6382b429006000526004601cfd5b604051612af981612acd602082019460208652604083019061258f565b037fffffffffffffffffffffffffffffffffffffffffffffffffffffffffffffffe08101835282612746565b51902090565b90600182811c92168015612b48575b6020831014612b1957565b7f4e487b7100000000000000000000000000000000000000000000000000000000600052602260045260246000fd5b91607f1691612b0e565b60ff7fcd5ed15c6e187e77e9aee88184c21f4f2182ab5827cb3b7e07fbedcd63f033005416612b7d57565b60046040517fd93c0665000000000000000000000000000000000000000000000000000000008152fd5b91908110156113855760051b0190565b818110612bc2575050565b60008155600101612bb7565b91818110612bdb57505050565b612bf19260005260206000209182019101612bb7565b565b638b78c6d8600c526000526020600c2090815490811618809155600c5160601c7f715ad5ce61fc9595c7b415289d59cf203f23a94fa06f04af7e489a0a76e1fe26600080a3565b60ff7ff0c57e16840df040f15088dc2f81fe391c3923bec73e23a9662efc9c229c6a005460401c1615612c6957565b60046040517fd7e6bcf8000000000000000000000000000000000000000000000000000000008152fdfea26469706673582212206d1982d23aaf1f2bbbcb7008bccb207459d27c3c88cd61bbd023183af2ff62d764736f6c63430008190033","linkReferences":{}},"methodIdentifiers":{"cancelOwnershipHandover()":"54d1f13d","completeOwnershipHandover(address)":"f04e283e","eip712Domain()":"84b0196e","fetchQueuedWithdrawals(address)":"8c475559","finishWithdraw((address,address,uint256,uint256,(address[],uint256[],address))[])":"86e9a1f7","grantRoles(address,uint256)":"1c10893f","hasAllRoles(address,uint256)":"1cd64df4","hasAnyRole(address,uint256)":"514e62fc","initialize(address,uint256,address)":"c350a1b5","isWithdrawPending((address,address,uint256,uint256,(address[],uint256[],address)))":"4618c974","owner()":"8da5cb5b","ownershipHandoverExpiresAt(address)":"fee81cf4","pause(bool)":"02329a29","paused()":"5c975abb","proxiableUUID()":"52d1902d","renounceOwnership()":"715018a6","renounceRoles(uint256)":"183a4f6e","requestOwnershipHandover()":"25692962","revokeRoles(address,uint256)":"4a4ee7b1","rolesOf(address)":"2de94807","startWithdraw((address[],uint256[],address)[])":"92dca407","transferOwnership(address)":"f2fde38b","updateWithdrawDelay(uint256)":"118f6726","upgradeToAndCall(address,bytes)":"4f1ef286","withdrawalDelay()":"a7ab6961"},"id":80}