{"abi":[{"type":"constructor","inputs":[],"stateMutability":"nonpayable"},{"type":"function","name":"cancelOwnershipHandover","inputs":[],"outputs":[],"stateMutability":"payable"},{"type":"function","name":"completeOwnershipHandover","inputs":[{"name":"pendingOwner","type":"address","internalType":"address"}],"outputs":[],"stateMutability":"payable"},{"type":"function","name":"computeGlobalDepositsInUsd","inputs":[{"name":"vaults","type":"address[]","internalType":"contract IVault[]"}],"outputs":[{"name":"","type":"uint256","internalType":"uint256"}],"stateMutability":"view"},{"type":"function","name":"computeUserMaximumDeposit","inputs":[{"name":"vaults","type":"address[]","internalType":"contract IVault[]"},{"name":"vaultToDeposit","type":"address","internalType":"contract IVault"},{"name":"user","type":"address","internalType":"address"},{"name":"walletBalance","type":"uint256","internalType":"uint256"}],"outputs":[{"name":"","type":"uint256","internalType":"uint256"}],"stateMutability":"view"},{"type":"function","name":"denormalizeVaultAssetValue","inputs":[{"name":"vault","type":"address","internalType":"contract IVault"},{"name":"value","type":"uint256","internalType":"uint256"}],"outputs":[{"name":"","type":"uint256","internalType":"uint256"}],"stateMutability":"view"},{"type":"function","name":"globalUsdLimit","inputs":[],"outputs":[{"name":"","type":"uint256","internalType":"uint256"}],"stateMutability":"view"},{"type":"function","name":"isLimitBreached","inputs":[{"name":"vaults","type":"address[]","internalType":"contract IVault[]"}],"outputs":[{"name":"","type":"bool","internalType":"bool"}],"stateMutability":"view"},{"type":"function","name":"normalizeVaultAssetValue","inputs":[{"name":"vault","type":"address","internalType":"contract IVault"},{"name":"value","type":"uint256","internalType":"uint256"}],"outputs":[{"name":"","type":"uint256","internalType":"uint256"}],"stateMutability":"view"},{"type":"function","name":"owner","inputs":[],"outputs":[{"name":"result","type":"address","internalType":"address"}],"stateMutability":"view"},{"type":"function","name":"ownershipHandoverExpiresAt","inputs":[{"name":"pendingOwner","type":"address","internalType":"address"}],"outputs":[{"name":"result","type":"uint256","internalType":"uint256"}],"stateMutability":"view"},{"type":"function","name":"remainingGlobalUsdLimit","inputs":[{"name":"vaults","type":"address[]","internalType":"contract IVault[]"}],"outputs":[{"name":"","type":"uint256","internalType":"uint256"}],"stateMutability":"view"},{"type":"function","name":"renounceOwnership","inputs":[],"outputs":[],"stateMutability":"payable"},{"type":"function","name":"requestOwnershipHandover","inputs":[],"outputs":[],"stateMutability":"payable"},{"type":"function","name":"setGlobalUsdLimit","inputs":[{"name":"_limit","type":"uint256","internalType":"uint256"}],"outputs":[],"stateMutability":"nonpayable"},{"type":"function","name":"setUsdPerBtc","inputs":[{"name":"_usdPerBtc","type":"uint256","internalType":"uint256"}],"outputs":[],"stateMutability":"nonpayable"},{"type":"function","name":"setUsdPerEth","inputs":[{"name":"_usdPerEth","type":"uint256","internalType":"uint256"}],"outputs":[],"stateMutability":"nonpayable"},{"type":"function","name":"transferOwnership","inputs":[{"name":"newOwner","type":"address","internalType":"address"}],"outputs":[],"stateMutability":"payable"},{"type":"function","name":"usdPerBtc","inputs":[],"outputs":[{"name":"","type":"uint256","internalType":"uint256"}],"stateMutability":"view"},{"type":"function","name":"usdPerEth","inputs":[],"outputs":[{"name":"","type":"uint256","internalType":"uint256"}],"stateMutability":"view"},{"type":"event","name":"OwnershipHandoverCanceled","inputs":[{"name":"pendingOwner","type":"address","indexed":true,"internalType":"address"}],"anonymous":false},{"type":"event","name":"OwnershipHandoverRequested","inputs":[{"name":"pendingOwner","type":"address","indexed":true,"internalType":"address"}],"anonymous":false},{"type":"event","name":"OwnershipTransferred","inputs":[{"name":"oldOwner","type":"address","indexed":true,"internalType":"address"},{"name":"newOwner","type":"address","indexed":true,"internalType":"address"}],"anonymous":false},{"type":"error","name":"AlreadyInitialized","inputs":[]},{"type":"error","name":"NewOwnerIsZeroAddress","inputs":[]},{"type":"error","name":"NoHandoverRequest","inputs":[]},{"type":"error","name":"Unauthorized","inputs":[]},{"type":"error","name":"UnsupportedAsset","inputs":[]}],"bytecode":{"object":"0x6080806040523460445733638b78c6d819553360007f8be0079c531659141344cd1fd0a4f28419497f9722a3daafe3b4186f6b6457e08180a3610ee3908161004a8239f35b600080fdfe6040608081526004908136101561001557600080fd5b600091823560e01c908163175b0d7c1461069c578163256929621461065157816354d1f13d1461060b57816360bce2f4146105ec57816360cfb204146105a7578163715018a614610546578163749936cf146105095781638da5cb5b146104b55781639c17223414610496578163a10c285314610459578163b6753e4514610430578163ca36695c1461040e578163cd6bcb35146103ec578163d0c59226146103cb578163d25cc430146103ae578163d8911d681461026b578163f04e283e146101c0578163f2fde38b1461012a575063fee81cf4146100f457600080fd5b34610126576020600319360112610126576020916101106106c5565b9063389a75e1600c525281600c20549051908152f35b5080fd5b83906020600319360112610126576101406106c5565b90610149610e75565b8160601b156101b5575073ffffffffffffffffffffffffffffffffffffffff167fffffffffffffffffffffffffffffffffffffffffffffffffffffffff748739278181547f8be0079c531659141344cd1fd0a4f28419497f9722a3daafe3b4186f6b6457e08580a35580f35b637448fbae8352601cfd5b836020600319360112610268576101d56106c5565b6101dd610e75565b63389a75e1600c528082526020600c20928354421161025d57508173ffffffffffffffffffffffffffffffffffffffff929355167fffffffffffffffffffffffffffffffffffffffffffffffffffffffff748739278181547f8be0079c531659141344cd1fd0a4f28419497f9722a3daafe3b4186f6b6457e08580a35580f35b636f5e88188352601cfd5b80fd5b82843461026857608060031936011261026857823567ffffffffffffffff81116101265761029c903690850161075d565b906024359173ffffffffffffffffffffffffffffffffffffffff808416918285036103aa576044359182168092036103aa579060246102dc602093610c7a565b97875194859384927f402d267d0000000000000000000000000000000000000000000000000000000084528301525afa91821561039f578092610368575b5050928161032d60209561035194610873565b61033960643583610873565b90838110610360575b50828110610358575b50610cdb565b9051908152f35b91508561034b565b925086610342565b9091506020823d602011610397575b81610384602093836106ed565b810103126102685750518161032d61031a565b3d9150610377565b8451903d90823e3d90fd5b8380fd5b505034610126578160031936011261012657602091549051908152f35b839034610126576020600319360112610126576103e6610e75565b35815580f35b83903461012657602060031936011261012657610407610e75565b3560025580f35b83903461012657602060031936011261012657610429610e75565b3560015580f35b5050346101265780600319360112610126576020906103516104506106c5565b60243590610cdb565b8284346102685760206003193601126102685782359067ffffffffffffffff821161026857506104916020936103519236910161075d565b610c7a565b5050346101265781600319360112610126576020906002549051908152f35b50503461012657816003193601126101265760209073ffffffffffffffffffffffffffffffffffffffff7fffffffffffffffffffffffffffffffffffffffffffffffffffffffff7487392754915191168152f35b8284346102685760206003193601126102685782359067ffffffffffffffff821161026857506105416020936103519236910161075d565b610b72565b83806003193601126102685761055a610e75565b807fffffffffffffffffffffffffffffffffffffffffffffffffffffffff748739278181547f8be0079c531659141344cd1fd0a4f28419497f9722a3daafe3b4186f6b6457e08280a35580f35b9050346105e85760206003193601126105e857803567ffffffffffffffff81116103aa57610541602094926105de9236910161075d565b9054109051908152f35b8280fd5b5050346101265781600319360112610126576020906001549051908152f35b83806003193601126102685763389a75e1600c52338152806020600c2055337ffa7b8eab7da67f412cc9575ed43464468f9bfbae89d1675917346ca6d8fe3c928280a280f35b83806003193601126102685763389a75e1600c523381526202a30042016020600c2055337fdbf36a107da19e49527a7176a1babf963b4b0ff8cde35ee35d6cd8f1f9ac7e1d8280a280f35b5050346101265780600319360112610126576020906103516106bc6106c5565b60243590610873565b6004359073ffffffffffffffffffffffffffffffffffffffff821682036106e857565b600080fd5b90601f7fffffffffffffffffffffffffffffffffffffffffffffffffffffffffffffffe0910116810190811067ffffffffffffffff82111761072e57604052565b7f4e487b7100000000000000000000000000000000000000000000000000000000600052604160045260246000fd5b81601f820112156106e85780359160209167ffffffffffffffff841161072e578360051b9060405194610792858401876106ed565b855283808601928201019283116106e8578301905b8282106107b5575050505090565b813573ffffffffffffffffffffffffffffffffffffffff811681036106e85781529083019083016107a7565b908160209103126106e8575160058110156106e85790565b8181029291811591840414171561080c57565b7f4e487b7100000000000000000000000000000000000000000000000000000000600052601160045260246000fd5b908160209103126106e8575160ff811681036106e85790565b60ff166012039060ff821161080c57565b604d811161080c57600a0a90565b73ffffffffffffffffffffffffffffffffffffffff166040908151907f3fe3347a000000000000000000000000000000000000000000000000000000009081835260209160049383818681865afa908115610b2457600091610b07575b506005811015610ad95760020361097b575081908451938480927f313ce5670000000000000000000000000000000000000000000000000000000082525afa9283156109715750610935610941949361093b9360ff93600092610944575b5050610854565b16610865565b906107f9565b90565b6109639250803d1061096a575b61095b81836106ed565b81019061083b565b388061092e565b503d610951565b513d6000823e3d90fd5b8493945181815283818781865afa908115610ace57600091610ab1575b506005811015610a83576001036109bb57505050505061094190600154906107f9565b82908585518094819382525afa918215610a7857600092610a4b575b50506005811015610a1d576003036109f7575050600254610941916107f9565b517f24a01144000000000000000000000000000000000000000000000000000000008152fd5b6021837f4e487b71000000000000000000000000000000000000000000000000000000006000525260246000fd5b610a6a9250803d10610a71575b610a6281836106ed565b8101906107e1565b38806109d7565b503d610a58565b83513d6000823e3d90fd5b6021867f4e487b71000000000000000000000000000000000000000000000000000000006000525260246000fd5b610ac89150843d8611610a7157610a6281836106ed565b38610998565b85513d6000823e3d90fd5b6021857f4e487b71000000000000000000000000000000000000000000000000000000006000525260246000fd5b610b1e9150843d8611610a7157610a6281836106ed565b386108d0565b86513d6000823e3d90fd5b8051821015610b435760209160051b010190565b7f4e487b7100000000000000000000000000000000000000000000000000000000600052603260045260246000fd5b906000805b8351821015610c755773ffffffffffffffffffffffffffffffffffffffff80610ba08487610b2f565b511690610bad8487610b2f565b511690604080518080947f01e1d114000000000000000000000000000000000000000000000000000000008252602091829160049788915afa9283156109715750600092610c44575b5050610c0191610873565b8201809211610c165750600190910190610b77565b6011907f4e487b71000000000000000000000000000000000000000000000000000000006000525260246000fd5b81819392933d8311610c6e575b610c5b81836106ed565b81010312610268575051610c0138610bf6565b503d610c51565b925050565b610c8390610b72565b6000549080821115610c9b57810390811161080c5790565b5050600090565b8115610cac570490565b7f4e487b7100000000000000000000000000000000000000000000000000000000600052601260045260246000fd5b73ffffffffffffffffffffffffffffffffffffffff166040908151907f3fe3347a000000000000000000000000000000000000000000000000000000009081835260209160049383818681865afa908115610b2457600091610e58575b506005811015610ad957600203610da2575081908451938480927f313ce5670000000000000000000000000000000000000000000000000000000082525afa92831561097157506109356109419493610d9c9360ff93600092610944575050610854565b90610ca2565b8493945181815283818781865afa908115610ace57600091610e3b575b506005811015610a8357600103610de25750505050506109419060015490610ca2565b82908585518094819382525afa918215610a7857600092610e1e575b50506005811015610a1d576003036109f757505060025461094191610ca2565b610e349250803d10610a7157610a6281836106ed565b3880610dfe565b610e529150843d8611610a7157610a6281836106ed565b38610dbf565b610e6f9150843d8611610a7157610a6281836106ed565b38610d38565b7fffffffffffffffffffffffffffffffffffffffffffffffffffffffff74873927543303610e9f57565b6382b429006000526004601cfdfea26469706673582212204100562ac39d2525542d52a3c81c15e54a67452b39cf7a9f3cea37b8661485f464736f6c63430008190033","linkReferences":{}},"methodIdentifiers":{"cancelOwnershipHandover()":"54d1f13d","completeOwnershipHandover(address)":"f04e283e","computeGlobalDepositsInUsd(address[])":"749936cf","computeUserMaximumDeposit(address[],address,address,uint256)":"d8911d68","denormalizeVaultAssetValue(address,uint256)":"b6753e45","globalUsdLimit()":"d25cc430","isLimitBreached(address[])":"60cfb204","normalizeVaultAssetValue(address,uint256)":"175b0d7c","owner()":"8da5cb5b","ownershipHandoverExpiresAt(address)":"fee81cf4","remainingGlobalUsdLimit(address[])":"a10c2853","renounceOwnership()":"715018a6","requestOwnershipHandover()":"25692962","setGlobalUsdLimit(uint256)":"d0c59226","setUsdPerBtc(uint256)":"cd6bcb35","setUsdPerEth(uint256)":"ca36695c","transferOwnership(address)":"f2fde38b","usdPerBtc()":"9c172234","usdPerEth()":"60bce2f4"},"id":81}