{"abi":[{"type":"constructor","inputs":[],"stateMutability":"nonpayable"},{"type":"function","name":"cancelOwnershipHandover","inputs":[],"outputs":[],"stateMutability":"payable"},{"type":"function","name":"completeOwnershipHandover","inputs":[{"name":"pendingOwner","type":"address","internalType":"address"}],"outputs":[],"stateMutability":"payable"},{"type":"function","name":"delegationManager","inputs":[],"outputs":[{"name":"","type":"address","internalType":"contract IDelegationManager"}],"stateMutability":"view"},{"type":"function","name":"getDeposits","inputs":[{"name":"stakers","type":"address[]","internalType":"address[]"}],"outputs":[{"name":"","type":"tuple[]","internalType":"struct IMonitor.DepositResult[]","components":[{"name":"user","type":"address","internalType":"address"},{"name":"vaults","type":"address[]","internalType":"contract IVault[]"},{"name":"tokens","type":"address[]","internalType":"contract IERC20[]"},{"name":"assets","type":"uint256[]","internalType":"uint256[]"},{"name":"shares","type":"uint256[]","internalType":"uint256[]"}]}],"stateMutability":"view"},{"type":"function","name":"getWithdraws","inputs":[{"name":"staker","type":"address","internalType":"address"}],"outputs":[{"name":"allWithdrawals","type":"tuple[]","internalType":"struct Withdraw.QueuedWithdrawal[]","components":[{"name":"staker","type":"address","internalType":"address"},{"name":"delegatedTo","type":"address","internalType":"address"},{"name":"nonce","type":"uint256","internalType":"uint256"},{"name":"start","type":"uint256","internalType":"uint256"},{"name":"request","type":"tuple","internalType":"struct Withdraw.WithdrawRequest","components":[{"name":"vaults","type":"address[]","internalType":"contract IVault[]"},{"name":"shares","type":"uint256[]","internalType":"uint256[]"},{"name":"withdrawer","type":"address","internalType":"address"}]}]},{"name":"isWithdrawPending","type":"bool[]","internalType":"bool[]"}],"stateMutability":"view"},{"type":"function","name":"owner","inputs":[],"outputs":[{"name":"result","type":"address","internalType":"address"}],"stateMutability":"view"},{"type":"function","name":"ownershipHandoverExpiresAt","inputs":[{"name":"pendingOwner","type":"address","internalType":"address"}],"outputs":[{"name":"result","type":"uint256","internalType":"uint256"}],"stateMutability":"view"},{"type":"function","name":"renounceOwnership","inputs":[],"outputs":[],"stateMutability":"payable"},{"type":"function","name":"requestOwnershipHandover","inputs":[],"outputs":[],"stateMutability":"payable"},{"type":"function","name":"setDelegationManager","inputs":[{"name":"_delegationManager","type":"address","internalType":"contract IDelegationManager"}],"outputs":[],"stateMutability":"nonpayable"},{"type":"function","name":"setVaultManager","inputs":[{"name":"_vaultManager","type":"address","internalType":"contract IVaultManager"}],"outputs":[],"stateMutability":"nonpayable"},{"type":"function","name":"transferOwnership","inputs":[{"name":"newOwner","type":"address","internalType":"address"}],"outputs":[],"stateMutability":"payable"},{"type":"function","name":"vaultManager","inputs":[],"outputs":[{"name":"","type":"address","internalType":"contract IVaultManager"}],"stateMutability":"view"},{"type":"event","name":"OwnershipHandoverCanceled","inputs":[{"name":"pendingOwner","type":"address","indexed":true,"internalType":"address"}],"anonymous":false},{"type":"event","name":"OwnershipHandoverRequested","inputs":[{"name":"pendingOwner","type":"address","indexed":true,"internalType":"address"}],"anonymous":false},{"type":"event","name":"OwnershipTransferred","inputs":[{"name":"oldOwner","type":"address","indexed":true,"internalType":"address"},{"name":"newOwner","type":"address","indexed":true,"internalType":"address"}],"anonymous":false},{"type":"error","name":"AlreadyInitialized","inputs":[]},{"type":"error","name":"NewOwnerIsZeroAddress","inputs":[]},{"type":"error","name":"NoHandoverRequest","inputs":[]},{"type":"error","name":"Unauthorized","inputs":[]}],"bytecode":{"object":"0x6080806040523460445733638b78c6d819553360007f8be0079c531659141344cd1fd0a4f28419497f9722a3daafe3b4186f6b6457e08180a361113b908161004a8239f35b600080fdfe6080604052600436101561001257600080fd5b60003560e01c80631a8d0de214610d675780632569296214610d1b57806354d1f13d14610cd3578063715018a614610c725780638a4adf2414610c3e5780638da5cb5b14610beb578063b543503e14610b83578063b9c7f52e146106ea578063e85062b914610256578063ea4d3c9b14610222578063f04e283e14610178578063f2fde38b146100e35763fee81cf4146100ab57600080fd5b346100de5760206003193601126100de576100c4610dcf565b63389a75e1600c52600052602080600c2054604051908152f35b600080fd5b60206003193601126100de576100f7610dcf565b6100ff6110cd565b8060601b1561016a5773ffffffffffffffffffffffffffffffffffffffff167fffffffffffffffffffffffffffffffffffffffffffffffffffffffff748739278181547f8be0079c531659141344cd1fd0a4f28419497f9722a3daafe3b4186f6b6457e0600080a355005b637448fbae6000526004601cfd5b60206003193601126100de5761018c610dcf565b6101946110cd565b63389a75e1600c52806000526020600c20908154421161021457600073ffffffffffffffffffffffffffffffffffffffff9255167fffffffffffffffffffffffffffffffffffffffffffffffffffffffff748739278181547f8be0079c531659141344cd1fd0a4f28419497f9722a3daafe3b4186f6b6457e0600080a355005b636f5e88186000526004601cfd5b346100de5760006003193601126100de57602073ffffffffffffffffffffffffffffffffffffffff60015416604051908152f35b346100de5760206003193601126100de5760043567ffffffffffffffff81116100de57366023820112156100de57806004013561029281610f72565b916102a06040519384610f31565b8183526024602084019260051b820101903682116100de57602401915b8183106106bd578351847fffffffffffffffffffffffffffffffffffffffffffffffffffffffffffffffe061030a6102f484610f72565b936103026040519586610f31565b808552610f72565b0160005b81811061068757505060009073ffffffffffffffffffffffffffffffffffffffff60005416915b81518110156105525773ffffffffffffffffffffffffffffffffffffffff61035d828461108a565b511690604051917f94f649dd0000000000000000000000000000000000000000000000000000000083526004830152600082602481875afa80156105465760009060008060009261040e575b6001955073ffffffffffffffffffffffffffffffffffffffff6103cc868961108a565b511693604051946103dc86610f15565b855260208501526040840152606083015260808201526103fc828761108a565b52610407818661108a565b5001610335565b505050503d806000843e6104228184610f31565b60808382810103126100de57825167ffffffffffffffff81116100de5761044e90828501908501610fab565b9060208401519167ffffffffffffffff83116100de57818501601f8487010112156100de57828501519261048184610f72565b9361048f6040519586610f31565b8085526020850184880160208360051b858b010101116100de57602083890101905b60208360051b858b01010182106105195750505050604085015167ffffffffffffffff81116100de576104e990838701908701611029565b9160608601519567ffffffffffffffff87116100de5760019661050f9282019101611029565b90929190916103a9565b815173ffffffffffffffffffffffffffffffffffffffff811681036100de578152602091820191016104b1565b6040513d6000823e3d90fd5b836040518091602082016020835281518091526040830190602060408260051b8601019301916000905b82821061058b57505050500390f35b91939092947fffffffffffffffffffffffffffffffffffffffffffffffffffffffffffffffc090820301825284516105ec60a073ffffffffffffffffffffffffffffffffffffffff8351168452602083015190806020860152840190610df2565b6040820151908381036040850152602080835192838152019201906000905b8082106106595750505061064960019360209361063685946060808401519085830390860152610e3c565b9160808092015191818403910152610e3c565b960192019201859493919261057c565b90919260208060019273ffffffffffffffffffffffffffffffffffffffff875116815201940192019061060b565b60209060405161069681610f15565b6000815260608084830152806040830152808083015260808201528282870101520161030e565b823573ffffffffffffffffffffffffffffffffffffffff811681036100de578152602092830192016102bd565b346100de5760206003193601126100de57610703610dcf565b600180546040517f8c47555900000000000000000000000000000000000000000000000000000000815273ffffffffffffffffffffffffffffffffffffffff9384166004820152919216600082602481845afa91821561054657600092610961575b50918151918161078d61077785610f72565b946107856040519687610f31565b808652610f72565b947fffffffffffffffffffffffffffffffffffffffffffffffffffffffffffffffe06020860196013687376000915b61087c575b505060405192604084016040855282518091526060850190602060608260051b8801019401916000905b82821061082f575050505060209084830382860152519182815201939060005b8181106108185784860385f35b82511515865260209586019590920191830161080b565b909192949560208061086b897fffffffffffffffffffffffffffffffffffffffffffffffffffffffffffffffa08c869e9c030186528951610e70565b9701920192019092919795976107eb565b8295939551821015610959578160206108986108d3948661108a565b51604051809581927f4618c9740000000000000000000000000000000000000000000000000000000083528460048401526024830190610e70565b0381855afa8015610546578793600091610919575b508391901561090757816108fc828961108a565b525b019193956107bc565b6000610913828961108a565b526108fe565b919350506020813d602011610951575b8161093660209383610f31565b810103126100de575180151581036100de57869290836108e8565b3d9150610929565b9492946107c1565b9091503d90816000823e6109758282610f31565b60208183810103126100de5780519167ffffffffffffffff83116100de57808201601f8484010112156100de5782820151906109b082610f72565b936109be6040519586610f31565b828552602085019082850160208560051b8388010101116100de57602081860101915b60208560051b838801010183106109ff575050505050509083610765565b825167ffffffffffffffff81116100de57828701019060a0907fffffffffffffffffffffffffffffffffffffffffffffffffffffffffffffffe090828285898c010301126100de5760405192610a5484610f15565b610a6060208601610f8a565b8452610a6e60408601610f8a565b602085015260608501516040850152608085015160608501528401519167ffffffffffffffff83116100de57606090838601898c010301126100de576040519283606081011067ffffffffffffffff606086011117610b5457606084016040526020838601015167ffffffffffffffff81116100de57610af89060208a8d01918689010101610fab565b8452604083860101519367ffffffffffffffff85116100de57610b3d606060209795889796610b328f988a8f819b01918585010101611029565b888601520101610f8a565b6040820152608082015281520193019290506109e1565b7f4e487b7100000000000000000000000000000000000000000000000000000000600052604160045260246000fd5b346100de5760206003193601126100de5760043573ffffffffffffffffffffffffffffffffffffffff81168091036100de57610bbd6110cd565b7fffffffffffffffffffffffff00000000000000000000000000000000000000006000541617600055600080f35b346100de5760006003193601126100de5760207fffffffffffffffffffffffffffffffffffffffffffffffffffffffff748739275473ffffffffffffffffffffffffffffffffffffffff60405191168152f35b346100de5760006003193601126100de57602073ffffffffffffffffffffffffffffffffffffffff60005416604051908152f35b60006003193601126100de57610c866110cd565b60007fffffffffffffffffffffffffffffffffffffffffffffffffffffffff748739278181547f8be0079c531659141344cd1fd0a4f28419497f9722a3daafe3b4186f6b6457e08280a355005b60006003193601126100de5763389a75e1600c523360005260006020600c2055337ffa7b8eab7da67f412cc9575ed43464468f9bfbae89d1675917346ca6d8fe3c92600080a2005b60006003193601126100de5763389a75e1600c52336000526202a30042016020600c2055337fdbf36a107da19e49527a7176a1babf963b4b0ff8cde35ee35d6cd8f1f9ac7e1d600080a2005b346100de5760206003193601126100de5760043573ffffffffffffffffffffffffffffffffffffffff81168091036100de57610da16110cd565b7fffffffffffffffffffffffff00000000000000000000000000000000000000006001541617600155600080f35b6004359073ffffffffffffffffffffffffffffffffffffffff821682036100de57565b90815180825260208080930193019160005b828110610e12575050505090565b835173ffffffffffffffffffffffffffffffffffffffff1685529381019392810192600101610e04565b90815180825260208080930193019160005b828110610e5c575050505090565b835185529381019392810192600101610e4e565b9060e0608073ffffffffffffffffffffffffffffffffffffffff93848151168452846020820151166020850152604081015160408501526060810151606085015201519260a060808401526040610f0b610ed78651606060a0880152610100870190610df2565b60208701517fffffffffffffffffffffffffffffffffffffffffffffffffffffffffffffff608783030160c0880152610e3c565b9401511691015290565b60a0810190811067ffffffffffffffff821117610b5457604052565b90601f7fffffffffffffffffffffffffffffffffffffffffffffffffffffffffffffffe0910116810190811067ffffffffffffffff821117610b5457604052565b67ffffffffffffffff8111610b545760051b60200190565b519073ffffffffffffffffffffffffffffffffffffffff821682036100de57565b9080601f830112156100de57815190602091610fc681610f72565b93610fd46040519586610f31565b81855260208086019260051b8201019283116100de57602001905b828210610ffd575050505090565b815173ffffffffffffffffffffffffffffffffffffffff811681036100de578152908301908301610fef565b9080601f830112156100de5781519060209161104481610f72565b936110526040519586610f31565b81855260208086019260051b8201019283116100de57602001905b82821061107b575050505090565b8151815290830190830161106d565b805182101561109e5760209160051b010190565b7f4e487b7100000000000000000000000000000000000000000000000000000000600052603260045260246000fd5b7fffffffffffffffffffffffffffffffffffffffffffffffffffffffff748739275433036110f757565b6382b429006000526004601cfdfea2646970667358221220239f6299ba9810060ed0c08486bbb17f319bb177ec3e78ef096d1ed2887962a164736f6c63430008190033","linkReferences":{}},"methodIdentifiers":{"cancelOwnershipHandover()":"54d1f13d","completeOwnershipHandover(address)":"f04e283e","delegationManager()":"ea4d3c9b","getDeposits(address[])":"e85062b9","getWithdraws(address)":"b9c7f52e","owner()":"8da5cb5b","ownershipHandoverExpiresAt(address)":"fee81cf4","renounceOwnership()":"715018a6","requestOwnershipHandover()":"25692962","setDelegationManager(address)":"1a8d0de2","setVaultManager(address)":"b543503e","transferOwnership(address)":"f2fde38b","vaultManager()":"8a4adf24"},"id":82}