{"abi":[{"type":"constructor","inputs":[],"stateMutability":"nonpayable"},{"type":"function","name":"DOMAIN_SEPARATOR","inputs":[],"outputs":[{"name":"result","type":"bytes32","internalType":"bytes32"}],"stateMutability":"view"},{"type":"function","name":"allowance","inputs":[{"name":"owner","type":"address","internalType":"address"},{"name":"spender","type":"address","internalType":"address"}],"outputs":[{"name":"result","type":"uint256","internalType":"uint256"}],"stateMutability":"view"},{"type":"function","name":"approve","inputs":[{"name":"spender","type":"address","internalType":"address"},{"name":"amount","type":"uint256","internalType":"uint256"}],"outputs":[{"name":"","type":"bool","internalType":"bool"}],"stateMutability":"nonpayable"},{"type":"function","name":"asset","inputs":[],"outputs":[{"name":"","type":"address","internalType":"address"}],"stateMutability":"view"},{"type":"function","name":"assetLimit","inputs":[],"outputs":[{"name":"","type":"uint256","internalType":"uint256"}],"stateMutability":"view"},{"type":"function","name":"assetType","inputs":[],"outputs":[{"name":"","type":"uint8","internalType":"enum IVault.AssetType"}],"stateMutability":"view"},{"type":"function","name":"balanceOf","inputs":[{"name":"owner","type":"address","internalType":"address"}],"outputs":[{"name":"result","type":"uint256","internalType":"uint256"}],"stateMutability":"view"},{"type":"function","name":"cancelOwnershipHandover","inputs":[],"outputs":[],"stateMutability":"payable"},{"type":"function","name":"completeOwnershipHandover","inputs":[{"name":"pendingOwner","type":"address","internalType":"address"}],"outputs":[],"stateMutability":"payable"},{"type":"function","name":"convertToAssets","inputs":[{"name":"shares","type":"uint256","internalType":"uint256"}],"outputs":[{"name":"assets","type":"uint256","internalType":"uint256"}],"stateMutability":"view"},{"type":"function","name":"convertToShares","inputs":[{"name":"assets","type":"uint256","internalType":"uint256"}],"outputs":[{"name":"shares","type":"uint256","internalType":"uint256"}],"stateMutability":"view"},{"type":"function","name":"decimals","inputs":[],"outputs":[{"name":"","type":"uint8","internalType":"uint8"}],"stateMutability":"view"},{"type":"function","name":"deposit","inputs":[{"name":"assets","type":"uint256","internalType":"uint256"},{"name":"depositor","type":"address","internalType":"address"}],"outputs":[{"name":"shares","type":"uint256","internalType":"uint256"}],"stateMutability":"nonpayable"},{"type":"function","name":"depositToken","inputs":[],"outputs":[{"name":"","type":"address","internalType":"contract IERC20"}],"stateMutability":"view"},{"type":"function","name":"initialize","inputs":[{"name":"_owner","type":"address","internalType":"address"},{"name":"_depositToken","type":"address","internalType":"contract IERC20"},{"name":"_name","type":"string","internalType":"string"},{"name":"_symbol","type":"string","internalType":"string"},{"name":"_assetType","type":"uint8","internalType":"enum IVault.AssetType"}],"outputs":[],"stateMutability":"nonpayable"},{"type":"function","name":"maxDeposit","inputs":[{"name":"to","type":"address","internalType":"address"}],"outputs":[{"name":"maxAssets","type":"uint256","internalType":"uint256"}],"stateMutability":"view"},{"type":"function","name":"maxMint","inputs":[{"name":"to","type":"address","internalType":"address"}],"outputs":[{"name":"maxShares","type":"uint256","internalType":"uint256"}],"stateMutability":"view"},{"type":"function","name":"maxRedeem","inputs":[{"name":"owner","type":"address","internalType":"address"}],"outputs":[{"name":"maxShares","type":"uint256","internalType":"uint256"}],"stateMutability":"view"},{"type":"function","name":"maxWithdraw","inputs":[{"name":"owner","type":"address","internalType":"address"}],"outputs":[{"name":"maxAssets","type":"uint256","internalType":"uint256"}],"stateMutability":"view"},{"type":"function","name":"mint","inputs":[{"name":"shares","type":"uint256","internalType":"uint256"},{"name":"to","type":"address","internalType":"address"}],"outputs":[{"name":"assets","type":"uint256","internalType":"uint256"}],"stateMutability":"nonpayable"},{"type":"function","name":"name","inputs":[],"outputs":[{"name":"","type":"string","internalType":"string"}],"stateMutability":"view"},{"type":"function","name":"nonces","inputs":[{"name":"owner","type":"address","internalType":"address"}],"outputs":[{"name":"result","type":"uint256","internalType":"uint256"}],"stateMutability":"view"},{"type":"function","name":"owner","inputs":[],"outputs":[{"name":"result","type":"address","internalType":"address"}],"stateMutability":"view"},{"type":"function","name":"ownershipHandoverExpiresAt","inputs":[{"name":"pendingOwner","type":"address","internalType":"address"}],"outputs":[{"name":"result","type":"uint256","internalType":"uint256"}],"stateMutability":"view"},{"type":"function","name":"pause","inputs":[{"name":"toPause","type":"bool","internalType":"bool"}],"outputs":[],"stateMutability":"nonpayable"},{"type":"function","name":"paused","inputs":[],"outputs":[{"name":"","type":"bool","internalType":"bool"}],"stateMutability":"view"},{"type":"function","name":"permit","inputs":[{"name":"owner","type":"address","internalType":"address"},{"name":"spender","type":"address","internalType":"address"},{"name":"value","type":"uint256","internalType":"uint256"},{"name":"deadline","type":"uint256","internalType":"uint256"},{"name":"v","type":"uint8","internalType":"uint8"},{"name":"r","type":"bytes32","internalType":"bytes32"},{"name":"s","type":"bytes32","internalType":"bytes32"}],"outputs":[],"stateMutability":"nonpayable"},{"type":"function","name":"previewDeposit","inputs":[{"name":"assets","type":"uint256","internalType":"uint256"}],"outputs":[{"name":"shares","type":"uint256","internalType":"uint256"}],"stateMutability":"view"},{"type":"function","name":"previewMint","inputs":[{"name":"shares","type":"uint256","internalType":"uint256"}],"outputs":[{"name":"assets","type":"uint256","internalType":"uint256"}],"stateMutability":"view"},{"type":"function","name":"previewRedeem","inputs":[{"name":"shares","type":"uint256","internalType":"uint256"}],"outputs":[{"name":"assets","type":"uint256","internalType":"uint256"}],"stateMutability":"view"},{"type":"function","name":"previewWithdraw","inputs":[{"name":"assets","type":"uint256","internalType":"uint256"}],"outputs":[{"name":"shares","type":"uint256","internalType":"uint256"}],"stateMutability":"view"},{"type":"function","name":"redeem","inputs":[{"name":"shares","type":"uint256","internalType":"uint256"},{"name":"to","type":"address","internalType":"address"},{"name":"owner","type":"address","internalType":"address"}],"outputs":[{"name":"assets","type":"uint256","internalType":"uint256"}],"stateMutability":"nonpayable"},{"type":"function","name":"renounceOwnership","inputs":[],"outputs":[],"stateMutability":"payable"},{"type":"function","name":"requestOwnershipHandover","inputs":[],"outputs":[],"stateMutability":"payable"},{"type":"function","name":"setLimit","inputs":[{"name":"newLimit","type":"uint256","internalType":"uint256"}],"outputs":[],"stateMutability":"nonpayable"},{"type":"function","name":"symbol","inputs":[],"outputs":[{"name":"","type":"string","internalType":"string"}],"stateMutability":"view"},{"type":"function","name":"totalAssets","inputs":[],"outputs":[{"name":"assets","type":"uint256","internalType":"uint256"}],"stateMutability":"view"},{"type":"function","name":"totalSupply","inputs":[],"outputs":[{"name":"result","type":"uint256","internalType":"uint256"}],"stateMutability":"view"},{"type":"function","name":"transfer","inputs":[{"name":"to","type":"address","internalType":"address"},{"name":"amount","type":"uint256","internalType":"uint256"}],"outputs":[{"name":"","type":"bool","internalType":"bool"}],"stateMutability":"nonpayable"},{"type":"function","name":"transferFrom","inputs":[{"name":"from","type":"address","internalType":"address"},{"name":"to","type":"address","internalType":"address"},{"name":"amount","type":"uint256","internalType":"uint256"}],"outputs":[{"name":"","type":"bool","internalType":"bool"}],"stateMutability":"nonpayable"},{"type":"function","name":"transferOwnership","inputs":[{"name":"newOwner","type":"address","internalType":"address"}],"outputs":[],"stateMutability":"payable"},{"type":"function","name":"withdraw","inputs":[{"name":"assets","type":"uint256","internalType":"uint256"},{"name":"to","type":"address","internalType":"address"},{"name":"owner","type":"address","internalType":"address"}],"outputs":[{"name":"shares","type":"uint256","internalType":"uint256"}],"stateMutability":"nonpayable"},{"type":"event","name":"Approval","inputs":[{"name":"owner","type":"address","indexed":true,"internalType":"address"},{"name":"spender","type":"address","indexed":true,"internalType":"address"},{"name":"amount","type":"uint256","indexed":false,"internalType":"uint256"}],"anonymous":false},{"type":"event","name":"Deposit","inputs":[{"name":"by","type":"address","indexed":true,"internalType":"address"},{"name":"owner","type":"address","indexed":true,"internalType":"address"},{"name":"assets","type":"uint256","indexed":false,"internalType":"uint256"},{"name":"shares","type":"uint256","indexed":false,"internalType":"uint256"}],"anonymous":false},{"type":"event","name":"Initialized","inputs":[{"name":"version","type":"uint64","indexed":false,"internalType":"uint64"}],"anonymous":false},{"type":"event","name":"OwnershipHandoverCanceled","inputs":[{"name":"pendingOwner","type":"address","indexed":true,"internalType":"address"}],"anonymous":false},{"type":"event","name":"OwnershipHandoverRequested","inputs":[{"name":"pendingOwner","type":"address","indexed":true,"internalType":"address"}],"anonymous":false},{"type":"event","name":"OwnershipTransferred","inputs":[{"name":"oldOwner","type":"address","indexed":true,"internalType":"address"},{"name":"newOwner","type":"address","indexed":true,"internalType":"address"}],"anonymous":false},{"type":"event","name":"Paused","inputs":[{"name":"account","type":"address","indexed":false,"internalType":"address"}],"anonymous":false},{"type":"event","name":"Transfer","inputs":[{"name":"from","type":"address","indexed":true,"internalType":"address"},{"name":"to","type":"address","indexed":true,"internalType":"address"},{"name":"amount","type":"uint256","indexed":false,"internalType":"uint256"}],"anonymous":false},{"type":"event","name":"Unpaused","inputs":[{"name":"account","type":"address","indexed":false,"internalType":"address"}],"anonymous":false},{"type":"event","name":"Withdraw","inputs":[{"name":"by","type":"address","indexed":true,"internalType":"address"},{"name":"to","type":"address","indexed":true,"internalType":"address"},{"name":"owner","type":"address","indexed":true,"internalType":"address"},{"name":"assets","type":"uint256","indexed":false,"internalType":"uint256"},{"name":"shares","type":"uint256","indexed":false,"internalType":"uint256"}],"anonymous":false},{"type":"error","name":"AllowanceOverflow","inputs":[]},{"type":"error","name":"AllowanceUnderflow","inputs":[]},{"type":"error","name":"AlreadyInitialized","inputs":[]},{"type":"error","name":"DepositMoreThanMax","inputs":[]},{"type":"error","name":"EnforcedPause","inputs":[]},{"type":"error","name":"ExpectedPause","inputs":[]},{"type":"error","name":"InsufficientAllowance","inputs":[]},{"type":"error","name":"InsufficientBalance","inputs":[]},{"type":"error","name":"InvalidInitialization","inputs":[]},{"type":"error","name":"InvalidPermit","inputs":[]},{"type":"error","name":"MintMoreThanMax","inputs":[]},{"type":"error","name":"NewOwnerIsZeroAddress","inputs":[]},{"type":"error","name":"NoHandoverRequest","inputs":[]},{"type":"error","name":"NotInitializing","inputs":[]},{"type":"error","name":"PermitExpired","inputs":[]},{"type":"error","name":"RedeemMoreThanMax","inputs":[]},{"type":"error","name":"Reentrancy","inputs":[]},{"type":"error","name":"TokenNotEnabled","inputs":[]},{"type":"error","name":"TotalSupplyOverflow","inputs":[]},{"type":"error","name":"Unauthorized","inputs":[]},{"type":"error","name":"WithdrawMoreThanMax","inputs":[]},{"type":"error","name":"ZeroAmount","inputs":[]}],"bytecode":{"object":"0x6080806040523460b4577ff0c57e16840df040f15088dc2f81fe391c3923bec73e23a9662efc9c229c6a009081549060ff8260401c1660a557506001600160401b036002600160401b0319828216016061575b6040516120f490816100ba8239f35b6001600160401b031990911681179091556040519081527fc7f505b2f371ae2175ee4913f4499e1f2633a7b5936321eed1cdaeb6115181d290602090a13880806052565b63f92ee8a960e01b8152600490fd5b600080fdfe6080604052600436101561001257600080fd5b60003560e01c806301e1d1141461187657806302329a291461172857806306fdde031461170c57806307a2d13a1461136a578063095ea7b31461169e5780630a28a4771461168057806318160ddd1461165a57806322da98e71461163c57806323b872dd14611557578063256929621461150b57806327ea6f2b146114ea578063313ce5671461148e5780633644e5151461140557806338d52e0f146105e25780633fe3347a146113ac578063402d267d146113885780634cdad5061461136a57806354d1f13d146113225780635c975abb146112e05780636e553f651461124757806370a08231146103c6578063715018a6146111e65780637ecebe00146111b35780638420ce99146109f25780638da5cb5b1461099f57806394bf804d1461094757806395d89b4114610846578063a9059cbb146107b8578063b3d7f6b91461079a578063b460af9414610717578063ba0876521461065a578063c63d75b614610616578063c6e6f59214610361578063c89039c5146105e2578063ce96cb77146105af578063d505accf146103f9578063d905777e146103c6578063dd62ed3e14610387578063ef8b30f714610361578063f04e283e146102b7578063f2fde38b146102225763fee81cf4146101ea57600080fd5b3461021d57602060031936011261021d576102036118f7565b63389a75e1600c52600052602080600c2054604051908152f35b600080fd5b602060031936011261021d576102366118f7565b61023e611c91565b8060601b156102a95773ffffffffffffffffffffffffffffffffffffffff167fffffffffffffffffffffffffffffffffffffffffffffffffffffffff748739278181547f8be0079c531659141344cd1fd0a4f28419497f9722a3daafe3b4186f6b6457e0600080a355005b637448fbae6000526004601cfd5b602060031936011261021d576102cb6118f7565b6102d3611c91565b63389a75e1600c52806000526020600c20908154421161035357600073ffffffffffffffffffffffffffffffffffffffff9255167fffffffffffffffffffffffffffffffffffffffffffffffffffffffff748739278181547f8be0079c531659141344cd1fd0a4f28419497f9722a3daafe3b4186f6b6457e0600080a355005b636f5e88186000526004601cfd5b3461021d57602060031936011261021d57602061037f600435611c65565b604051908152f35b3461021d57604060031936011261021d576103a06118f7565b6103a861191a565b602052637f5e9f20600c5260005260206034600c2054604051908152f35b3461021d57602060031936011261021d576103df6118f7565b6387a211a2600c52600052602080600c2054604051908152f35b3461021d5760e060031936011261021d576104126118f7565b61041a61191a565b604435606435906084359360ff8516850361021d57610437611ace565b918251602080940120918442116105a1576040519073ffffffffffffffffffffffffffffffffffffffff80911696169665383775081901600e528660005260c085600c20928354977f8b73c3c69bb8fe3d512ecc4cf759cc79239f7b179b0ffacaa9a75d522b39400f82528782019687528860408301977fc89efdaa54c0f20c7adf612882df0950f5a951637e0307cdcb4c672f298b8bc689528c6060850199468b528d608087019330855260a08820602e527f6e71edae12b1b97f4d1f60370fef10105fa2faae0126114a169c64845d6126c9885252528789525260a082015220604e526042602c2060005260ff16845260a43560405260c43560605283806080600060015afa863d5103610593577f8c5be1e5ebec7d5bd14f71427d1e84f3dd0314c0f7b2291e5b200ac8c7c3b9259501905585777f5e9f200000000000000000000000000000000000000000176040526034602c2055a3005b63ddafbaef6000526004601cfd5b631a15a3cc6000526004601cfd5b3461021d57602060031936011261021d576105c86118f7565b6387a211a2600c52600052602061037f81600c2054611bb3565b3461021d57600060031936011261021d57602073ffffffffffffffffffffffffffffffffffffffff60005416604051908152f35b3461021d57602060031936011261021d5761062f6118f7565b5060206040517fffffffffffffffffffffffffffffffffffffffffffffffffffffffffffffffff8152f35b3461021d57610668366119f3565b90610671611c91565b68929eee149b4bd2126890308254146107095730825561068f611db6565b83156106df576387a211a2600c52826000526020600c205484116106d157836106c6916106bd602096611bb3565b94859133611f75565b389055604051908152f35b634656425a6000526004601cfd5b60046040517f1f2a2005000000000000000000000000000000000000000000000000000000008152fd5b63ab143c066000526004601cfd5b3461021d57610725366119f3565b909161072f611c91565b610737611db6565b68929eee149b4bd2126890308254146107095730825580156106df576387a211a2600c528260005261076d6020600c2054611bb3565b811161078c57602093816107836106c693611be2565b94859233611f75565b63936941fc6000526004601cfd5b3461021d57602060031936011261021d57602061037f600435611c39565b3461021d57604060031936011261021d576107d16118f7565b6024356387a211a2600c523360005260209182600c20805480841161083857839003905560005281600c208181540190558152600c5160601c337fddf252ad1be2c89b69c2b068fc378daa952ba7f163c4a11628f55a4df523b3ef8380a360405160018152f35b63f4d678b86000526004601cfd5b3461021d57600060031936011261021d57604051600060045461086881611a7b565b808452906020906001908181169081156108ff57506001146108a5575b6108a1856108958187038261193d565b60405191829182611891565b0390f35b6004600090815293507f8a35acfbc15ff81a39ae7d344fd709f28e8600b4aa8c65c6b64bfe7fe36bd19b5b8385106108ec57505050508101602001610895826108a1610885565b80548686018401529382019381016108d0565b8695506108a1969350602092506108959491507fffffffffffffffffffffffffffffffffffffffffffffffffffffffffffffff001682840152151560051b8201019293610885565b3461021d57604060031936011261021d5760043561096361191a565b61096b611c91565b610973611db6565b68929eee149b4bd2126830815414610709576106c660209330835561099781611c39565b809433611e0b565b3461021d57600060031936011261021d5760207fffffffffffffffffffffffffffffffffffffffffffffffffffffffff748739275473ffffffffffffffffffffffffffffffffffffffff60405191168152f35b3461021d5760a060031936011261021d57610a0b6118f7565b6024359073ffffffffffffffffffffffffffffffffffffffff808316830361021d5760443567ffffffffffffffff811161021d57610a4d90369060040161197e565b9260643567ffffffffffffffff811161021d57610a6e90369060040161197e565b6005608435101561021d577ff0c57e16840df040f15088dc2f81fe391c3923bec73e23a9662efc9c229c6a00549367ffffffffffffffff8516801590816111a3575b6001149081611199575b159081611190575b506111665760017fffffffffffffffffffffffffffffffffffffffffffffffff00000000000000008616177ff0c57e16840df040f15088dc2f81fe391c3923bec73e23a9662efc9c229c6a005560ff8560401c1615611111575b608435156110e7578316807fffffffffffffffffffffffffffffffffffffffffffffffffffffffff748739275560007f8be0079c531659141344cd1fd0a4f28419497f9722a3daafe3b4186f6b6457e08180a3610b77611f1c565b610b7f611f1c565b7fcd5ed15c6e187e77e9aee88184c21f4f2182ab5827cb3b7e07fbedcd63f033007fffffffffffffffffffffffffffffffffffffffffffffffffffffffffffffff0081541690558282167fffffffffffffffffffffffff00000000000000000000000000000000000000006000541617600055845167ffffffffffffffff8111610f455780600396610c118854611a7b565b601f811161103b575b50602090601f8311600114610f7f57600092610f74575b50507fffffffffffffffffffffffffffffffffffffffffffffffffffffffffffffffff8260011b92881b1c19161785555b80519067ffffffffffffffff8211610f4557610c7f600454611a7b565b601f8111610ee0575b50602090601f8311600114610e0d579360009360ff9784600495601c956020998993610de2575b5050807fffffffffffffffffffffffffffffffffffffffffffffffffffffffffffffffff9160011b931b1c19161784555b63313ce5678552165afa6000516101008110601f3d1116909116908115610dd957025b6002547fffffffffffffffffffffffffffffffffffffffffffffffffffffffffffff000061ff0085608435169360081b169116171760025560401c1615610d4657005b7fffffffffffffffffffffffffffffffffffffffffffffff00ffffffffffffffff7ff0c57e16840df040f15088dc2f81fe391c3923bec73e23a9662efc9c229c6a0054167ff0c57e16840df040f15088dc2f81fe391c3923bec73e23a9662efc9c229c6a00557fc7f505b2f371ae2175ee4913f4499e1f2633a7b5936321eed1cdaeb6115181d2602060405160018152a1005b50506012610d03565b015191507fffffffffffffffffffffffffffffffffffffffffffffffffffffffffffffffff8c610caf565b907fffffffffffffffffffffffffffffffffffffffffffffffffffffffffffffffe083169160046000527f8a35acfbc15ff81a39ae7d344fd709f28e8600b4aa8c65c6b64bfe7fe36bd19b9260005b818110610ec8575084601c9460ff9a60209995600099958460049a60019710610e8f575b5050505050811b018455610ce0565b7fffffffffffffffffffffffffffffffffffffffffffffffffffffffffffffffff9260f8920151931b161c191690558a80808084610e80565b92936020600181928786015181550195019301610e5c565b60046000527f8a35acfbc15ff81a39ae7d344fd709f28e8600b4aa8c65c6b64bfe7fe36bd19b601f840160051c81019160208510610f3b575b601f0160051c01905b818110610f2f5750610c88565b60008155600101610f22565b9091508190610f19565b7f4e487b7100000000000000000000000000000000000000000000000000000000600052604160045260246000fd5b015190508780610c31565b60008981527fc2575a0e9e593c00f959f8c92f12db2869c3395a3b0502d05e2516446f71f85b937fffffffffffffffffffffffffffffffffffffffffffffffffffffffffffffffe016905b8181106110235750908460019594939210610fed575b505050811b018555610c62565b01517fffffffffffffffffffffffffffffffffffffffffffffffffffffffffffffffff60f8848b1b161c19169055878080610fe0565b92936020600181928786015181550195019301610fca565b90915087600052601f830160051c7fc2575a0e9e593c00f959f8c92f12db2869c3395a3b0502d05e2516446f71f85b0190602084106110bf575b90601f8493920160051c7fc2575a0e9e593c00f959f8c92f12db2869c3395a3b0502d05e2516446f71f85b01905b8181106110b05750610c1a565b600081558493506001016110a3565b7fc2575a0e9e593c00f959f8c92f12db2869c3395a3b0502d05e2516446f71f85b9150611075565b60046040517f3f9f188e000000000000000000000000000000000000000000000000000000008152fd5b680100000000000000017fffffffffffffffffffffffffffffffffffffffffffffff0000000000000000008616177ff0c57e16840df040f15088dc2f81fe391c3923bec73e23a9662efc9c229c6a0055610b1c565b60046040517ff92ee8a9000000000000000000000000000000000000000000000000000000008152fd5b90501587610ac2565b303b159150610aba565b604087901c60ff16159150610ab0565b3461021d57602060031936011261021d576111cc6118f7565b6338377508600c52600052602080600c2054604051908152f35b600060031936011261021d576111fa611c91565b60007fffffffffffffffffffffffffffffffffffffffffffffffffffffffff748739278181547f8be0079c531659141344cd1fd0a4f28419497f9722a3daafe3b4186f6b6457e08280a355005b3461021d57604060031936011261021d5760043561126361191a565b9061126c611c91565b611274611db6565b68929eee149b4bd21268308154146107095730815581156106df57611297611c0e565b82116112b6576106c66020936112ac84611c65565b9384913390611e0b565b60046040517fb3c61a83000000000000000000000000000000000000000000000000000000008152fd5b3461021d57600060031936011261021d57602060ff7fcd5ed15c6e187e77e9aee88184c21f4f2182ab5827cb3b7e07fbedcd63f0330054166040519015158152f35b600060031936011261021d5763389a75e1600c523360005260006020600c2055337ffa7b8eab7da67f412cc9575ed43464468f9bfbae89d1675917346ca6d8fe3c92600080a2005b3461021d57602060031936011261021d57602061037f600435611bb3565b3461021d57602060031936011261021d576113a16118f7565b50602061037f611c0e565b3461021d57600060031936011261021d5760ff6002541660405160058210156113d6576020918152f35b7f4e487b7100000000000000000000000000000000000000000000000000000000600052602160045260246000fd5b3461021d57600060031936011261021d57602060a0611422611ace565b828151910120604051907f8b73c3c69bb8fe3d512ecc4cf759cc79239f7b179b0ffacaa9a75d522b39400f8252838201527fc89efdaa54c0f20c7adf612882df0950f5a951637e0307cdcb4c672f298b8bc6604082015246606082015230608082015220604051908152f35b3461021d57600060031936011261021d5760ff60025460081c1660ff81116114bb57602090604051908152f35b7f4e487b7100000000000000000000000000000000000000000000000000000000600052601160045260246000fd5b3461021d57602060031936011261021d57611503611c91565b600435600155005b600060031936011261021d5763389a75e1600c52336000526202a30042016020600c2055337fdbf36a107da19e49527a7176a1babf963b4b0ff8cde35ee35d6cd8f1f9ac7e1d600080a2005b3461021d57606060031936011261021d576115706118f7565b61157861191a565b90604435918160601b602093338552600c91637f5e9f2081178352603483209081549160018301611617575b506387a211a21783525084822080549390848311610838578273ffffffffffffffffffffffffffffffffffffffff9503905560005284822081815401905584525160601c91167fddf252ad1be2c89b69c2b068fc378daa952ba7f163c4a11628f55a4df523b3ef8380a360405160018152f35b82841161162e57836387a211a293039055876115a4565b6313be252b6000526004601cfd5b3461021d57600060031936011261021d576020600154604051908152f35b3461021d57600060031936011261021d5760206805345cdf77eb68f44c54604051908152f35b3461021d57602060031936011261021d57602061037f600435611be2565b3461021d57604060031936011261021d576116b76118f7565b60243590602052637f5e9f20600c5233600052806034600c2055600052602c5160601c337f8c5be1e5ebec7d5bd14f71427d1e84f3dd0314c0f7b2291e5b200ac8c7c3b92560206000a3602060405160018152f35b3461021d57600060031936011261021d576108a1610895611ace565b3461021d57602060031936011261021d57600435801515810361021d5761174d611c91565b156117d05761175a611db6565b7fcd5ed15c6e187e77e9aee88184c21f4f2182ab5827cb3b7e07fbedcd63f0330060017fffffffffffffffffffffffffffffffffffffffffffffffffffffffffffffff008254161790557f62e78cea01bee320cd4e420270b5ea74000d11b0c9f74754ebdbfc544b05a2586020604051338152a1005b7fcd5ed15c6e187e77e9aee88184c21f4f2182ab5827cb3b7e07fbedcd63f03300805460ff81161561184c577fffffffffffffffffffffffffffffffffffffffffffffffffffffffffffffff001690557f5db9ee0a495bf2e6ff9c91a7834c1ba4fdd244a5e8aa4e537bd38aeae4b073aa6020604051338152a1005b60046040517f8dfc202b000000000000000000000000000000000000000000000000000000008152fd5b3461021d57600060031936011261021d57602061037f611a35565b60208082528251818301819052939260005b8581106118e3575050507fffffffffffffffffffffffffffffffffffffffffffffffffffffffffffffffe0601f8460006040809697860101520116010190565b8181018301518482016040015282016118a3565b6004359073ffffffffffffffffffffffffffffffffffffffff8216820361021d57565b6024359073ffffffffffffffffffffffffffffffffffffffff8216820361021d57565b90601f7fffffffffffffffffffffffffffffffffffffffffffffffffffffffffffffffe0910116810190811067ffffffffffffffff821117610f4557604052565b81601f8201121561021d5780359067ffffffffffffffff8211610f4557604051926119d160207fffffffffffffffffffffffffffffffffffffffffffffffffffffffffffffffe0601f860116018561193d565b8284526020838301011161021d57816000926020809301838601378301015290565b600319606091011261021d576004359073ffffffffffffffffffffffffffffffffffffffff90602435828116810361021d5791604435908116810361021d5790565b6020806024601073ffffffffffffffffffffffffffffffffffffffff60005416306014526f70a082310000000000000000000000006000525afa601f3d11166020510290565b90600182811c92168015611ac4575b6020831014611a9557565b7f4e487b7100000000000000000000000000000000000000000000000000000000600052602260045260246000fd5b91607f1691611a8a565b6040519060008260035491611ae283611a7b565b80835292602090600190818116908115611b705750600114611b0f575b5050611b0d9250038361193d565b565b91509260036000527fc2575a0e9e593c00f959f8c92f12db2869c3395a3b0502d05e2516446f71f85b936000925b828410611b585750611b0d9450505081016020013880611aff565b85548885018301529485019487945092810192611b3d565b905060209350611b0d9592507fffffffffffffffffffffffffffffffffffffffffffffffffffffffffffffff0091501682840152151560051b8201013880611aff565b611bbb611a35565b90600182018092116114bb57611bdf9160016805345cdf77eb68f44c540191611cc9565b90565b6805345cdf77eb68f44c5490600182018092116114bb57611bdf916001611c07611a35565b0191611d85565b600154611c19611a35565b8111611c255750600090565b611c2d611a35565b81039081116114bb5790565b611c41611a35565b90600182018092116114bb57611bdf9160016805345cdf77eb68f44c540191611d85565b6805345cdf77eb68f44c5490600182018092116114bb57611bdf916001611c8a611a35565b0191611cc9565b7fffffffffffffffffffffffffffffffffffffffffffffffffffffffff74873927543303611cbb57565b6382b429006000526004601cfd5b90600091818102917fffffffffffffffffffffffffffffffffffffffffffffffffffffffffffffffff8183099183831084018084039314611d695782861115611d5c57908591099160018585038616809604600281600302811880830282030280830282030280830282030280830282030280830282030280920290030295808086850304960304019211900302170290565b63ae47f70285526004601cfd5b505050908215611d7857500490565b63ae47f70290526004601cfd5b929190611d93828286611cc9565b9309611d9b57565b90600101908115611da857565b63ae47f7026000526004601cfd5b60ff7fcd5ed15c6e187e77e9aee88184c21f4f2182ab5827cb3b7e07fbedcd63f033005416611de157565b60046040517fd93c0665000000000000000000000000000000000000000000000000000000008152fd5b9092919273ffffffffffffffffffffffffffffffffffffffff93600093858554166020866064601c826040519588606052306040528a60601b602c526f23b872dd000000000000000000000000600c525af13d156001885114171615611f0f57856060526040526805345cdf77eb68f44c805490828201918210611f0257917fdcbc1c05240f31ff3ad067ef1ee35ce4997762752e3a095284754544f4c709d795939160409593556387a211a2600c528287526020600c20818154019055602052600c5160601c867fddf252ad1be2c89b69c2b068fc378daa952ba7f163c4a11628f55a4df523b3ef602080a385528516941692a3565b63e5cfe95787526004601cfd5b637939f42486526004601cfd5b60ff7ff0c57e16840df040f15088dc2f81fe391c3923bec73e23a9662efc9c229c6a005460401c1615611f4b57565b60046040517fd7e6bcf8000000000000000000000000000000000000000000000000000000008152fd5b9093929173ffffffffffffffffffffffffffffffffffffffff93848216938486851603612084575b6387a211a2600c526000948386526020600c2080548085116120775790848893920390556805345cdf77eb68f44c8481540390558382527fddf252ad1be2c89b69c2b068fc378daa952ba7f163c4a11628f55a4df523b3ef602083a360208560446010828a8154168c601452866034526fa9059cbb00000000000000000000000082525af13d15600187511417161561206a576034859052845260205283169383169216907ffbde797d201c681b91056529119e0b02407c7bb96a4a2c75c01fc9667232c8db90604090a4565b6390b8ec1885526004601cfd5b63f4d678b888526004601cfd5b83602052637f5e9f20600c52826000526034600c208054600181016120ab575b5050611f9d565b80841161162e57839003905538806120a456fea26469706673582212200005e8c6ff40b59890049b3cf70e3e43fa7a3940d1850dc5d4ea52ed2f97ff4d64736f6c63430008190033","linkReferences":{}},"methodIdentifiers":{"DOMAIN_SEPARATOR()":"3644e515","allowance(address,address)":"dd62ed3e","approve(address,uint256)":"095ea7b3","asset()":"38d52e0f","assetLimit()":"22da98e7","assetType()":"3fe3347a","balanceOf(address)":"70a08231","cancelOwnershipHandover()":"54d1f13d","completeOwnershipHandover(address)":"f04e283e","convertToAssets(uint256)":"07a2d13a","convertToShares(uint256)":"c6e6f592","decimals()":"313ce567","deposit(uint256,address)":"6e553f65","depositToken()":"c89039c5","initialize(address,address,string,string,uint8)":"8420ce99","maxDeposit(address)":"402d267d","maxMint(address)":"c63d75b6","maxRedeem(address)":"d905777e","maxWithdraw(address)":"ce96cb77","mint(uint256,address)":"94bf804d","name()":"06fdde03","nonces(address)":"7ecebe00","owner()":"8da5cb5b","ownershipHandoverExpiresAt(address)":"fee81cf4","pause(bool)":"02329a29","paused()":"5c975abb","permit(address,address,uint256,uint256,uint8,bytes32,bytes32)":"d505accf","previewDeposit(uint256)":"ef8b30f7","previewMint(uint256)":"b3d7f6b9","previewRedeem(uint256)":"4cdad506","previewWithdraw(uint256)":"0a28a477","redeem(uint256,address,address)":"ba087652","renounceOwnership()":"715018a6","requestOwnershipHandover()":"25692962","setLimit(uint256)":"27ea6f2b","symbol()":"95d89b41","totalAssets()":"01e1d114","totalSupply()":"18160ddd","transfer(address,uint256)":"a9059cbb","transferFrom(address,address,uint256)":"23b872dd","transferOwnership(address)":"f2fde38b","withdraw(uint256,address,address)":"b460af94"},"id":83}