{"abi":[{"type":"constructor","inputs":[],"stateMutability":"nonpayable"},{"type":"function","name":"SIGNED_DEPOSIT_TYPEHASH","inputs":[],"outputs":[{"name":"","type":"bytes32","internalType":"bytes32"}],"stateMutability":"pure"},{"type":"function","name":"cancelOwnershipHandover","inputs":[],"outputs":[],"stateMutability":"payable"},{"type":"function","name":"changeImplementation","inputs":[{"name":"newVaultImpl","type":"address","internalType":"address"}],"outputs":[],"stateMutability":"nonpayable"},{"type":"function","name":"changeImplementationForVault","inputs":[{"name":"vault","type":"address","internalType":"address"},{"name":"newVaultImpl","type":"address","internalType":"address"}],"outputs":[],"stateMutability":"nonpayable"},{"type":"function","name":"completeOwnershipHandover","inputs":[{"name":"pendingOwner","type":"address","internalType":"address"}],"outputs":[],"stateMutability":"payable"},{"type":"function","name":"delegationManager","inputs":[],"outputs":[{"name":"","type":"address","internalType":"contract IDelegationManager"}],"stateMutability":"view"},{"type":"function","name":"deployVault","inputs":[{"name":"depositToken","type":"address","internalType":"contract IERC20"},{"name":"name","type":"string","internalType":"string"},{"name":"symbol","type":"string","internalType":"string"},{"name":"assetType","type":"uint8","internalType":"enum IVault.AssetType"}],"outputs":[{"name":"","type":"address","internalType":"contract IVault"}],"stateMutability":"nonpayable"},{"type":"function","name":"deposit","inputs":[{"name":"vault","type":"address","internalType":"contract IVault"},{"name":"amount","type":"uint256","internalType":"uint256"},{"name":"minSharesOut","type":"uint256","internalType":"uint256"}],"outputs":[{"name":"","type":"uint256","internalType":"uint256"}],"stateMutability":"nonpayable"},{"type":"function","name":"depositAndGimmie","inputs":[{"name":"vault","type":"address","internalType":"contract IVault"},{"name":"amount","type":"uint256","internalType":"uint256"},{"name":"minSharesOut","type":"uint256","internalType":"uint256"}],"outputs":[{"name":"shares","type":"uint256","internalType":"uint256"}],"stateMutability":"nonpayable"},{"type":"function","name":"depositWithSignature","inputs":[{"name":"vault","type":"address","internalType":"contract IVault"},{"name":"user","type":"address","internalType":"address"},{"name":"value","type":"uint256","internalType":"uint256"},{"name":"minSharesOut","type":"uint256","internalType":"uint256"},{"name":"deadline","type":"uint256","internalType":"uint256"},{"name":"permit","type":"tuple","internalType":"struct IVaultManager.Signature","components":[{"name":"v","type":"uint8","internalType":"uint8"},{"name":"r","type":"bytes32","internalType":"bytes32"},{"name":"s","type":"bytes32","internalType":"bytes32"}]},{"name":"vaultAllowance","type":"tuple","internalType":"struct IVaultManager.Signature","components":[{"name":"v","type":"uint8","internalType":"uint8"},{"name":"r","type":"bytes32","internalType":"bytes32"},{"name":"s","type":"bytes32","internalType":"bytes32"}]}],"outputs":[{"name":"","type":"uint256","internalType":"uint256"}],"stateMutability":"nonpayable"},{"type":"function","name":"getDeposits","inputs":[{"name":"staker","type":"address","internalType":"address"}],"outputs":[{"name":"vaults","type":"address[]","internalType":"contract IVault[]"},{"name":"tokens","type":"address[]","internalType":"contract IERC20[]"},{"name":"assets","type":"uint256[]","internalType":"uint256[]"},{"name":"shares","type":"uint256[]","internalType":"uint256[]"}],"stateMutability":"view"},{"type":"function","name":"getUserNonce","inputs":[{"name":"user","type":"address","internalType":"address"}],"outputs":[{"name":"","type":"uint256","internalType":"uint256"}],"stateMutability":"view"},{"type":"function","name":"getVaults","inputs":[],"outputs":[{"name":"","type":"address[]","internalType":"contract IVault[]"}],"stateMutability":"view"},{"type":"function","name":"gimmieShares","inputs":[{"name":"vault","type":"address","internalType":"contract IVault"},{"name":"shares","type":"uint256","internalType":"uint256"}],"outputs":[],"stateMutability":"nonpayable"},{"type":"function","name":"grantRoles","inputs":[{"name":"user","type":"address","internalType":"address"},{"name":"roles","type":"uint256","internalType":"uint256"}],"outputs":[],"stateMutability":"payable"},{"type":"function","name":"hasAllRoles","inputs":[{"name":"user","type":"address","internalType":"address"},{"name":"roles","type":"uint256","internalType":"uint256"}],"outputs":[{"name":"","type":"bool","internalType":"bool"}],"stateMutability":"view"},{"type":"function","name":"hasAnyRole","inputs":[{"name":"user","type":"address","internalType":"address"},{"name":"roles","type":"uint256","internalType":"uint256"}],"outputs":[{"name":"","type":"bool","internalType":"bool"}],"stateMutability":"view"},{"type":"function","name":"implementation","inputs":[],"outputs":[{"name":"","type":"address","internalType":"address"}],"stateMutability":"view"},{"type":"function","name":"implementation","inputs":[{"name":"vault","type":"address","internalType":"address"}],"outputs":[{"name":"","type":"address","internalType":"address"}],"stateMutability":"view"},{"type":"function","name":"initialize","inputs":[{"name":"_delegationManager","type":"address","internalType":"address"},{"name":"_vaultImpl","type":"address","internalType":"address"},{"name":"_limiter","type":"address","internalType":"contract ILimiter"},{"name":"_manager","type":"address","internalType":"address"}],"outputs":[],"stateMutability":"nonpayable"},{"type":"function","name":"owner","inputs":[],"outputs":[{"name":"result","type":"address","internalType":"address"}],"stateMutability":"view"},{"type":"function","name":"ownershipHandoverExpiresAt","inputs":[{"name":"pendingOwner","type":"address","internalType":"address"}],"outputs":[{"name":"result","type":"uint256","internalType":"uint256"}],"stateMutability":"view"},{"type":"function","name":"pause","inputs":[{"name":"toPause","type":"bool","internalType":"bool"}],"outputs":[],"stateMutability":"nonpayable"},{"type":"function","name":"paused","inputs":[],"outputs":[{"name":"","type":"bool","internalType":"bool"}],"stateMutability":"view"},{"type":"function","name":"proxiableUUID","inputs":[],"outputs":[{"name":"","type":"bytes32","internalType":"bytes32"}],"stateMutability":"view"},{"type":"function","name":"redeemShares","inputs":[{"name":"staker","type":"address","internalType":"address"},{"name":"vault","type":"address","internalType":"contract IVault"},{"name":"shares","type":"uint256","internalType":"uint256"}],"outputs":[],"stateMutability":"nonpayable"},{"type":"function","name":"removeShares","inputs":[{"name":"staker","type":"address","internalType":"address"},{"name":"vault","type":"address","internalType":"contract IVault"},{"name":"shares","type":"uint256","internalType":"uint256"}],"outputs":[],"stateMutability":"nonpayable"},{"type":"function","name":"renounceOwnership","inputs":[],"outputs":[],"stateMutability":"payable"},{"type":"function","name":"renounceRoles","inputs":[{"name":"roles","type":"uint256","internalType":"uint256"}],"outputs":[],"stateMutability":"payable"},{"type":"function","name":"requestOwnershipHandover","inputs":[],"outputs":[],"stateMutability":"payable"},{"type":"function","name":"returnShares","inputs":[{"name":"vault","type":"address","internalType":"contract IVault"},{"name":"shares","type":"uint256","internalType":"uint256"}],"outputs":[],"stateMutability":"nonpayable"},{"type":"function","name":"revokeRoles","inputs":[{"name":"user","type":"address","internalType":"address"},{"name":"roles","type":"uint256","internalType":"uint256"}],"outputs":[],"stateMutability":"payable"},{"type":"function","name":"rolesOf","inputs":[{"name":"user","type":"address","internalType":"address"}],"outputs":[{"name":"roles","type":"uint256","internalType":"uint256"}],"stateMutability":"view"},{"type":"function","name":"runAdminOperation","inputs":[{"name":"vault","type":"address","internalType":"contract IVault"},{"name":"fn","type":"bytes","internalType":"bytes"}],"outputs":[{"name":"","type":"bytes","internalType":"bytes"}],"stateMutability":"nonpayable"},{"type":"function","name":"setLimiter","inputs":[{"name":"limiter","type":"address","internalType":"contract ILimiter"}],"outputs":[],"stateMutability":"nonpayable"},{"type":"function","name":"transferOwnership","inputs":[{"name":"newOwner","type":"address","internalType":"address"}],"outputs":[],"stateMutability":"payable"},{"type":"function","name":"upgradeToAndCall","inputs":[{"name":"newImplementation","type":"address","internalType":"address"},{"name":"data","type":"bytes","internalType":"bytes"}],"outputs":[],"stateMutability":"payable"},{"type":"event","name":"Deposit","inputs":[{"name":"staker","type":"address","indexed":true,"internalType":"address"},{"name":"vault","type":"address","indexed":true,"internalType":"address"},{"name":"amount","type":"uint256","indexed":false,"internalType":"uint256"},{"name":"minSharesOut","type":"uint256","indexed":false,"internalType":"uint256"}],"anonymous":false},{"type":"event","name":"DepositInternal","inputs":[{"name":"staker","type":"address","indexed":true,"internalType":"address"},{"name":"vault","type":"address","indexed":true,"internalType":"address"},{"name":"amount","type":"uint256","indexed":false,"internalType":"uint256"},{"name":"minSharesOut","type":"uint256","indexed":false,"internalType":"uint256"}],"anonymous":false},{"type":"event","name":"DepositWithSignature","inputs":[{"name":"vault","type":"address","indexed":true,"internalType":"address"},{"name":"user","type":"address","indexed":true,"internalType":"address"},{"name":"value","type":"uint256","indexed":false,"internalType":"uint256"},{"name":"minSharesOut","type":"uint256","indexed":false,"internalType":"uint256"},{"name":"deadline","type":"uint256","indexed":false,"internalType":"uint256"}],"anonymous":false},{"type":"event","name":"GimmieShares","inputs":[{"name":"vault","type":"address","indexed":true,"internalType":"address"},{"name":"shares","type":"uint256","indexed":false,"internalType":"uint256"}],"anonymous":false},{"type":"event","name":"Initialized","inputs":[{"name":"version","type":"uint64","indexed":false,"internalType":"uint64"}],"anonymous":false},{"type":"event","name":"NewVault","inputs":[{"name":"vault","type":"address","indexed":true,"internalType":"address"}],"anonymous":false},{"type":"event","name":"OwnershipHandoverCanceled","inputs":[{"name":"pendingOwner","type":"address","indexed":true,"internalType":"address"}],"anonymous":false},{"type":"event","name":"OwnershipHandoverRequested","inputs":[{"name":"pendingOwner","type":"address","indexed":true,"internalType":"address"}],"anonymous":false},{"type":"event","name":"OwnershipTransferred","inputs":[{"name":"oldOwner","type":"address","indexed":true,"internalType":"address"},{"name":"newOwner","type":"address","indexed":true,"internalType":"address"}],"anonymous":false},{"type":"event","name":"Paused","inputs":[{"name":"account","type":"address","indexed":false,"internalType":"address"}],"anonymous":false},{"type":"event","name":"RedeemShares","inputs":[{"name":"vault","type":"address","indexed":true,"internalType":"address"},{"name":"staker","type":"address","indexed":true,"internalType":"address"},{"name":"shares","type":"uint256","indexed":false,"internalType":"uint256"}],"anonymous":false},{"type":"event","name":"RemoveShares","inputs":[{"name":"vault","type":"address","indexed":true,"internalType":"address"},{"name":"staker","type":"address","indexed":true,"internalType":"address"},{"name":"shares","type":"uint256","indexed":false,"internalType":"uint256"}],"anonymous":false},{"type":"event","name":"RemoveVaultFromStaker","inputs":[{"name":"staker","type":"address","indexed":true,"internalType":"address"},{"name":"vault","type":"address","indexed":true,"internalType":"address"}],"anonymous":false},{"type":"event","name":"ReturnShares","inputs":[{"name":"vault","type":"address","indexed":true,"internalType":"address"},{"name":"shares","type":"uint256","indexed":false,"internalType":"uint256"}],"anonymous":false},{"type":"event","name":"RolesUpdated","inputs":[{"name":"user","type":"address","indexed":true,"internalType":"address"},{"name":"roles","type":"uint256","indexed":true,"internalType":"uint256"}],"anonymous":false},{"type":"event","name":"Unpaused","inputs":[{"name":"account","type":"address","indexed":false,"internalType":"address"}],"anonymous":false},{"type":"event","name":"Upgraded","inputs":[{"name":"implementation","type":"address","indexed":true,"internalType":"address"}],"anonymous":false},{"type":"event","name":"UpgradedAllVaults","inputs":[{"name":"implementation","type":"address","indexed":true,"internalType":"address"}],"anonymous":false},{"type":"event","name":"UpgradedVault","inputs":[{"name":"implementation","type":"address","indexed":true,"internalType":"address"},{"name":"vault","type":"address","indexed":true,"internalType":"address"}],"anonymous":false},{"type":"error","name":"AlreadyInitialized","inputs":[]},{"type":"error","name":"CrossedDepositLimit","inputs":[]},{"type":"error","name":"ECDSAInvalidSignature","inputs":[]},{"type":"error","name":"ECDSAInvalidSignatureLength","inputs":[{"name":"length","type":"uint256","internalType":"uint256"}]},{"type":"error","name":"ECDSAInvalidSignatureS","inputs":[{"name":"s","type":"bytes32","internalType":"bytes32"}]},{"type":"error","name":"EnforcedPause","inputs":[]},{"type":"error","name":"ExpectedPause","inputs":[]},{"type":"error","name":"ExpiredSign","inputs":[]},{"type":"error","name":"InvalidInitialization","inputs":[]},{"type":"error","name":"InvalidSignature","inputs":[]},{"type":"error","name":"InvalidVaultAdminFunction","inputs":[]},{"type":"error","name":"MaxStakerVault","inputs":[]},{"type":"error","name":"NewOwnerIsZeroAddress","inputs":[]},{"type":"error","name":"NoHandoverRequest","inputs":[]},{"type":"error","name":"NotDelegationManager","inputs":[]},{"type":"error","name":"NotEnoughShares","inputs":[]},{"type":"error","name":"NotInitializing","inputs":[]},{"type":"error","name":"PermitFailed","inputs":[]},{"type":"error","name":"Reentrancy","inputs":[]},{"type":"error","name":"Unauthorized","inputs":[]},{"type":"error","name":"UnauthorizedCallContext","inputs":[]},{"type":"error","name":"UpgradeFailed","inputs":[]},{"type":"error","name":"VaultNotAChildVault","inputs":[]},{"type":"error","name":"VaultNotFound","inputs":[]},{"type":"error","name":"ZeroAddress","inputs":[]},{"type":"error","name":"ZeroShares","inputs":[]}],"bytecode":{"object":"0x60a0806040523460c857306080527ff0c57e16840df040f15088dc2f81fe391c3923bec73e23a9662efc9c229c6a009081549060ff8260401c1660b957506001600160401b036002600160401b0319828216016075575b60405161445590816100ce823960805181818161108b01526113970152f35b6001600160401b031990911681179091556040519081527fc7f505b2f371ae2175ee4913f4499e1f2633a7b5936321eed1cdaeb6115181d290602090a13880806056565b63f92ee8a960e01b8152600490fd5b600080fdfe6080604052600436101561001257600080fd5b60003560e01c806302329a29146102675780630efe6a8b1461026257806317070f021461025d57806317a68dd814610258578063183a4f6e146102535780631c10893f1461024e5780631cd64df41461024957806325692962146102445780632b93e0a21461023f5780632de948071461023a57806344d00f82146102355780634a4ee7b1146102305780634f1ef2861461022b578063514e62fc1461022657806351ffb74a1461022157806352d1902d1461021c57806354d1f13d146102175780635c60da1b146102125780635c975abb1461020d5780636834e3a8146102085780636b88071814610203578063715018a6146101fe5780637a29084c146101f95780637fb2a0a1146101f45780638b198025146101ef5780638c80d4e5146101ea5780638da5cb5b146101e557806394f649dd146101e0578063aa0a050c146101db578063c1f09e30146101d6578063e4af8b22146101d1578063ea4d3c9b146101cc578063f04e283e146101c7578063f0edf6aa146101c2578063f2fde38b146101bd578063f8c8765e146101b85763fee81cf4146101b357600080fd5b612960565b612748565b612708565b61266f565b6124f5565b6124a2565b612467565b6122a1565b6120d9565b611d16565b611c00565b611a4e565b611920565b61162a565b6115a1565b61153f565b611518565b6114a8565b611466565b61142c565b6113e5565b611383565b6111ef565b61117e565b61104f565b610ff5565b610f32565b610eaa565b610a79565b6109cb565b61097a565b610914565b6108fa565b61081f565b6104b8565b61040a565b61027b565b8015150361027657565b600080fd5b34610276576020600319360112610276576004356102988161026c565b6102a061310e565b15610323576102ad613162565b7fcd5ed15c6e187e77e9aee88184c21f4f2182ab5827cb3b7e07fbedcd63f0330060017fffffffffffffffffffffffffffffffffffffffffffffffffffffffffffffff008254161790557f62e78cea01bee320cd4e420270b5ea74000d11b0c9f74754ebdbfc544b05a2586020604051338152a1005b7fcd5ed15c6e187e77e9aee88184c21f4f2182ab5827cb3b7e07fbedcd63f03300805460ff81161561039f577fffffffffffffffffffffffffffffffffffffffffffffffffffffffffffffff001690557f5db9ee0a495bf2e6ff9c91a7834c1ba4fdd244a5e8aa4e537bd38aeae4b073aa6020604051338152a1005b60046040517f8dfc202b000000000000000000000000000000000000000000000000000000008152fd5b73ffffffffffffffffffffffffffffffffffffffff81160361027657565b6003196060910112610276576004356103ff816103c9565b906024359060443590565b3461027657610418366103e7565b9168929eee149b4bd2126890308254146104aa5761044560209430845561043d613162565b8483336131b7565b927fdcbc1c05240f31ff3ad067ef1ee35ce4997762752e3a095284754544f4c709d773ffffffffffffffffffffffffffffffffffffffff6040519316928061049c8733958360209093929193604081019481520152565b0390a3389055604051908152f35b63ab143c066000526004601cfd5b34610276576104c6366103e7565b68929eee149b4bd2126890308254146104aa576104f0903083556104e8613162565b8385336131b7565b9173ffffffffffffffffffffffffffffffffffffffff90818516916105548373ffffffffffffffffffffffffffffffffffffffff166000527fa850f9cb190d34eca968aeee8c951b4765e62744d7c13847a3ad392ad8649103602052604060002090565b5416156107f557308354146104aa5730835583156107cb57836105df866105ba3373ffffffffffffffffffffffffffffffffffffffff166000527fa850f9cb190d34eca968aeee8c951b4765e62744d7c13847a3ad392ad8649100602052604060002090565b9073ffffffffffffffffffffffffffffffffffffffff16600052602052604060002090565b54106107a157610632856105ba3373ffffffffffffffffffffffffffffffffffffffff166000527fa850f9cb190d34eca968aeee8c951b4765e62744d7c13847a3ad392ad8649100602052604060002090565b61063d858254612b50565b90556040517fa9059cbb00000000000000000000000000000000000000000000000000000000815233600482015260248101859052946020866044816000875af195861561079c576107599661076d575b506106dc816105ba3373ffffffffffffffffffffffffffffffffffffffff166000527fa850f9cb190d34eca968aeee8c951b4765e62744d7c13847a3ad392ad8649100602052604060002090565b541561075d575b5060405184815282907ff87504d44023c5cb614ded92e0ae18520c60af8c1ca5a7704f09c3ceb44c65f690602090a2604080519182526020820185905233917fdcbc1c05240f31ff3ad067ef1ee35ce4997762752e3a095284754544f4c709d79190a33890556040519081529081906020820190565b0390f35b6107679033613576565b386106e3565b61078e9060203d602011610795575b61078681836125ad565b810190612b5d565b503861068e565b503d61077c565b612a70565b60046040517ff15ed214000000000000000000000000000000000000000000000000000000008152fd5b60046040517f9811e0c7000000000000000000000000000000000000000000000000000000008152fd5b60046040517fb13b4eea000000000000000000000000000000000000000000000000000000008152fd5b346102765760206003193601126102765773ffffffffffffffffffffffffffffffffffffffff600435610851816103c9565b61085961312a565b1680156108d0577fa850f9cb190d34eca968aeee8c951b4765e62744d7c13847a3ad392ad8649105817fffffffffffffffffffffffff00000000000000000000000000000000000000008254161790557f2768c62492a0ab17bb4fd74f18e51a421e2a8e30c0d05ec389cd5609e91b4d5e600080a2005b60046040517fd92e233d000000000000000000000000000000000000000000000000000000008152fd5b602060031936011261027657610912600435336139d9565b005b60406003193601126102765760043561092c816103c9565b61093461312a565b638b78c6d8600c526000526020600c20602435815417809155600c5160601c7f715ad5ce61fc9595c7b415289d59cf203f23a94fa06f04af7e489a0a76e1fe26600080a3005b346102765760406003193601126102765760206109b660043561099c816103c9565b602435918291638b78c6d8600c526000526020600c205490565b1614604051908152f35b600091031261027657565b600080600319360112610a175763389a75e1600c523381526202a30042016020600c2055337fdbf36a107da19e49527a7176a1babf963b4b0ff8cde35ee35d6cd8f1f9ac7e1d8280a280f35b80fd5b7fffffffffffffffffffffffffffffffffffffffffffffffffffffffffffffff5c60609101126102765760a490565b7ffffffffffffffffffffffffffffffffffffffffffffffffffffffffffffffefc60609101126102765761010490565b3461027657610160600319360112610276576004803590610a99826103c9565b602435610aa5816103c9565b604435916064359260843591610aba36610a1a565b93610ac436610a49565b9068929eee149b4bd212689430865414610e9d57308655610ae3613162565b610b2c8273ffffffffffffffffffffffffffffffffffffffff166000527fa850f9cb190d34eca968aeee8c951b4765e62744d7c13847a3ad392ad8649102602052604060002090565b5473ffffffffffffffffffffffffffffffffffffffff93848b16956040998a51907f38d52e0f0000000000000000000000000000000000000000000000000000000090818352828a818660209687935afa801561079c578a91600091610e80575b501690610b998161347f565b823b15610276578e517fd505accf00000000000000000000000000000000000000000000000000000000815273ffffffffffffffffffffffffffffffffffffffff808c16828901908152908e166020820152604081018f9052606081018b905260ff90921660808301528583013560a0830152918f013560c0820152909160009183919082908490829060e00103925af19081610e67575b50610e24578b51908152818184818c5afa801561079c57898391898f8c90610cb596600094610df5575b50518096819582947fdd62ed3e0000000000000000000000000000000000000000000000000000000084528b840190602090939293604083019473ffffffffffffffffffffffffffffffffffffffff809216845216910152565b0392165afa90811561079c578a92600092610dc8575b505010610da1575091610d6e8a886107599d610d13610d8d9689988786868f9d7f37fcf0e3fab7aa8bbb40c46fb6429f20fffae44f02878774570bb55e2cd2422c9f9e613ad7565b610d5c8773ffffffffffffffffffffffffffffffffffffffff166000527fa850f9cb190d34eca968aeee8c951b4765e62744d7c13847a3ad392ad8649102602052604060002090565b610d6681546129c6565b9055866131b7565b9989519485941697846040919493926060820195825260208201520152565b0390a3389055519081529081906020820190565b89517fb78cb0dd000000000000000000000000000000000000000000000000000000008152fd5b610de79250803d10610dee575b610ddf81836125ad565b810190612a61565b3880610ccb565b503d610dd5565b610e16919450863d8811610e1d575b610e0e81836125ad565b810190612c39565b9238610c5b565b503d610e04565b50505091610d6e8a886107599d610d13610d8d9689988786868f9d7f37fcf0e3fab7aa8bbb40c46fb6429f20fffae44f02878774570bb55e2cd2422c9f9e613ad7565b80610e74610e7a92612578565b806109c0565b38610c31565b610e979150853d8711610e1d57610e0e81836125ad565b38610b8d565b8363ab143c06600052601cfd5b34610276576020600319360112610276576020610ee0600435610ecc816103c9565b638b78c6d8600c526000526020600c205490565b604051908152f35b90815180825260208080930193019160005b828110610f08575050505090565b835173ffffffffffffffffffffffffffffffffffffffff1685529381019392810192600101610efa565b3461027657600060031936011261027657604051807fa850f9cb190d34eca968aeee8c951b4765e62744d7c13847a3ad392ad86491049182548082526020809201936000527fcc963e9281187e610857e988900b0c72937ebb5122acc7f351ae2143b44e4682916000905b828210610fc85761075985610fb4818903826125ad565b604051918291602083526020830190610ee8565b835473ffffffffffffffffffffffffffffffffffffffff1686529485019460019384019390910190610f9d565b604060031936011261027657610912600435611010816103c9565b61101861312a565b602435906139d9565b9181601f840112156102765782359167ffffffffffffffff8311610276576020838186019501011161027657565b604060031936011261027657600435611067816103c9565b60243567ffffffffffffffff811161027657611087903690600401611021565b91307f0000000000000000000000000000000000000000000000000000000000000000146111705773ffffffffffffffffffffffffffffffffffffffff906110cd61312a565b16916352d1902d6001527f360894a13ba1a3210667c828492db98dca3e2076cc3735a920a3ca505d382bbc9081602060016004601d885afa5103611162578084916000958694817fbc7cd75a20ee27fd9adebab32041f755214dbc6bffa90cc0225b39da2e5c2d3b8780a255611141578280f35b806040519485378338925af415611159578181808280f35b903d90823e3d90fd5b6355299b496001526004601dfd5b639f03a0266000526004601cfd5b3461027657604060031936011261027657602060043561119d816103c9565b6111b860243591638b78c6d8600c526000526020600c205490565b161515604051908152f35b6003196060910112610276576004356111db816103c9565b906024356111e8816103c9565b9060443590565b34610276576111fd366111c3565b909173ffffffffffffffffffffffffffffffffffffffff92837fa850f9cb190d34eca968aeee8c951b4765e62744d7c13847a3ad392ad864910654163303611359578316908361128c8373ffffffffffffffffffffffffffffffffffffffff166000527fa850f9cb190d34eca968aeee8c951b4765e62744d7c13847a3ad392ad8649103602052604060002090565b5416156107f55768929eee149b4bd2126893308554146104aa57308555604051917fba08765200000000000000000000000000000000000000000000000000000000835284600484015216928360248301523060448301526020826064816000875af190811561079c577f02bed2e84737fb4b872bf9799d2b10dc622ff931136f2ab73f344cd4c6bb64eb926113329261133a575b506040519081529081906020820190565b0390a3389055005b6113529060203d602011610dee57610ddf81836125ad565b5038611321565b60046040517f1a4b3a04000000000000000000000000000000000000000000000000000000008152fd5b3461027657600060031936011261027657307f0000000000000000000000000000000000000000000000000000000000000000036111705760206040517f360894a13ba1a3210667c828492db98dca3e2076cc3735a920a3ca505d382bbc8152f35b600080600319360112610a175763389a75e1600c52338152806020600c2055337ffa7b8eab7da67f412cc9575ed43464468f9bfbae89d1675917346ca6d8fe3c928280a280f35b3461027657600060031936011261027657602061144833612a7c565b73ffffffffffffffffffffffffffffffffffffffff60405191168152f35b3461027657600060031936011261027657602060ff7fcd5ed15c6e187e77e9aee88184c21f4f2182ab5827cb3b7e07fbedcd63f0330054166040519015158152f35b3461027657602060031936011261027657602061150f6004356114ca816103c9565b73ffffffffffffffffffffffffffffffffffffffff166000527fa850f9cb190d34eca968aeee8c951b4765e62744d7c13847a3ad392ad8649102602052604060002090565b54604051908152f35b3461027657602060031936011261027657602061144860043561153a816103c9565b612a7c565b600080600319360112610a175761155461312a565b807fffffffffffffffffffffffffffffffffffffffffffffffffffffffff748739278181547f8be0079c531659141344cd1fd0a4f28419497f9722a3daafe3b4186f6b6457e08280a35580f35b34610276576020600319360112610276576004356115be816103c9565b6115c661310e565b73ffffffffffffffffffffffffffffffffffffffff7fa850f9cb190d34eca968aeee8c951b4765e62744d7c13847a3ad392ad864910791167fffffffffffffffffffffffff0000000000000000000000000000000000000000825416179055600080f35b346102765760408060031936011261027657600490813561164a816103c9565b73ffffffffffffffffffffffffffffffffffffffff80821660008181527fa850f9cb190d34eca968aeee8c951b4765e62744d7c13847a3ad392ad864910360205260409020909291602435915416156118f75768929eee149b4bd2126893308554146118ea5730855581156118c25781611707846105ba3373ffffffffffffffffffffffffffffffffffffffff166000527fa850f9cb190d34eca968aeee8c951b4765e62744d7c13847a3ad392ad8649100602052604060002090565b541061189a576020826117c6959697611763866105ba3373ffffffffffffffffffffffffffffffffffffffff166000527fa850f9cb190d34eca968aeee8c951b4765e62744d7c13847a3ad392ad8649100602052604060002090565b61176e838254612b50565b9055835196879283927fa9059cbb000000000000000000000000000000000000000000000000000000008452339084016020909392919373ffffffffffffffffffffffffffffffffffffffff60408201951681520152565b03816000895af192831561079c577ff87504d44023c5cb614ded92e0ae18520c60af8c1ca5a7704f09c3ceb44c65f6946118639461187b575b5061184d816105ba3373ffffffffffffffffffffffffffffffffffffffff166000527fa850f9cb190d34eca968aeee8c951b4765e62744d7c13847a3ad392ad8649100602052604060002090565b541561186b575b50519081529081906020820190565b0390a2389055005b6118759033613576565b38611854565b6118939060203d6020116107955761078681836125ad565b50386117ff565b8590517ff15ed214000000000000000000000000000000000000000000000000000000008152fd5b8590517f9811e0c7000000000000000000000000000000000000000000000000000000008152fd5b8563ab143c06600052601cfd5b505050517fb13b4eea000000000000000000000000000000000000000000000000000000008152fd5b346102765760406003193601126102765760043561193d816103c9565b73ffffffffffffffffffffffffffffffffffffffff81811660008181527fa850f9cb190d34eca968aeee8c951b4765e62744d7c13847a3ad392ad8649103602052604090209091602435915416156107f55768929eee149b4bd2126892308454146104aa57816119b091308655336137c4565b604051907f23b872dd0000000000000000000000000000000000000000000000000000000082523360048301523060248301528060448301526020826064816000875af190811561079c577fdb3a24df51e2684f7f4c05e804abea0d70af94a4d5b0496e384fb401542c5bcc9261186392611a3657506040519081529081906020820190565b6113529060203d6020116107955761078681836125ad565b3461027657611a5c366111c3565b73ffffffffffffffffffffffffffffffffffffffff91827fa850f9cb190d34eca968aeee8c951b4765e62744d7c13847a3ad392ad864910654163303611359578281169280611aea8573ffffffffffffffffffffffffffffffffffffffff166000527fa850f9cb190d34eca968aeee8c951b4765e62744d7c13847a3ad392ad8649103602052604060002090565b5416156107f55768929eee149b4bd2126894308654146104aa5730865583156107cb57611b5a836105ba8373ffffffffffffffffffffffffffffffffffffffff166000527fa850f9cb190d34eca968aeee8c951b4765e62744d7c13847a3ad392ad8649100602052604060002090565b54928385116107a1578484817f4e737cafea3b9cd13d65124b0da9f5d79edff8ca13cd97b3ec311ae14283c7699603611bd6846105ba8773ffffffffffffffffffffffffffffffffffffffff166000527fa850f9cb190d34eca968aeee8c951b4765e62744d7c13847a3ad392ad8649100602052604060002090565b5514611bf0575b5060405193845216918060208101611332565b611bfa9082613576565b38611bdd565b346102765760006003193601126102765760207fffffffffffffffffffffffffffffffffffffffffffffffffffffffff748739275473ffffffffffffffffffffffffffffffffffffffff60405191168152f35b90815180825260208080930193019160005b828110611c73575050505090565b835185529381019392810192600101611c65565b9290611c9f9095949295608085526080850190610ee8565b60209084810360208601526020808851928381520197019160005b828110611cec575050505084611cdb9184611ce99697036040860152611c53565b916060818403910152611c53565b90565b835173ffffffffffffffffffffffffffffffffffffffff1689529781019792810192600101611cba565b34610276576020806003193601126102765760048035611d35816103c9565b611d7e8173ffffffffffffffffffffffffffffffffffffffff166000527fa850f9cb190d34eca968aeee8c951b4765e62744d7c13847a3ad392ad8649101602052604060002090565b5490611d8982612b8a565b92611d9383612b8a565b92611d9d81612b8a565b9560005b828110611e0c57878761075988611dff611dfa8a73ffffffffffffffffffffffffffffffffffffffff166000527fa850f9cb190d34eca968aeee8c951b4765e62744d7c13847a3ad392ad8649101602052604060002090565b6129f8565b9260405194859485611c87565b611ef1611e588673ffffffffffffffffffffffffffffffffffffffff166000527fa850f9cb190d34eca968aeee8c951b4765e62744d7c13847a3ad392ad8649100602052604060002090565b611ecd611ead84611ea88a73ffffffffffffffffffffffffffffffffffffffff166000527fa850f9cb190d34eca968aeee8c951b4765e62744d7c13847a3ad392ad8649101602052604060002090565b612c08565b905473ffffffffffffffffffffffffffffffffffffffff9160031b1c1690565b73ffffffffffffffffffffffffffffffffffffffff16600052602052604060002090565b5490611f5f611f46611ead83611ea88a73ffffffffffffffffffffffffffffffffffffffff166000527fa850f9cb190d34eca968aeee8c951b4765e62744d7c13847a3ad392ad8649101602052604060002090565b73ffffffffffffffffffffffffffffffffffffffff1690565b604084815180937f07a2d13a0000000000000000000000000000000000000000000000000000000082528180611f9c898d83019190602083019252565b03915afa93841561079c57879486936000916120bc575b50611fbe858d612c25565b52611fc9848b612c25565b5261201d611f46611ead85611ea88c73ffffffffffffffffffffffffffffffffffffffff166000527fa850f9cb190d34eca968aeee8c951b4765e62744d7c13847a3ad392ad8649101602052604060002090565b9051938480927f38d52e0f0000000000000000000000000000000000000000000000000000000082525afa801561079c5773ffffffffffffffffffffffffffffffffffffffff6120999160019460009161209f575b501661207e838c612c25565b9073ffffffffffffffffffffffffffffffffffffffff169052565b01611da1565b6120b69150863d8811610e1d57610e0e81836125ad565b38612072565b6120d39150843d8611610dee57610ddf81836125ad565b38611fb3565b34610276576040600319360112610276576004356120f6816103c9565b60243590612103826103c9565b61210b61312a565b73ffffffffffffffffffffffffffffffffffffffff908183169283156108d057826121758373ffffffffffffffffffffffffffffffffffffffff166000527fa850f9cb190d34eca968aeee8c951b4765e62744d7c13847a3ad392ad8649103602052604060002090565b5416156107f557612209906121c98373ffffffffffffffffffffffffffffffffffffffff166000527fa850f9cb190d34eca968aeee8c951b4765e62744d7c13847a3ad392ad8649103602052604060002090565b9073ffffffffffffffffffffffffffffffffffffffff167fffffffffffffffffffffffff0000000000000000000000000000000000000000825416179055565b16907f928c1491037173ffa6782c693f229e11dbb934cb28daf9e2d1fca4b5131ffbf7600080a3005b919082519283825260005b84811061227c5750507fffffffffffffffffffffffffffffffffffffffffffffffffffffffffffffffe0601f8460006020809697860101520116010190565b60208183018101518483018201520161223d565b906020611ce9928181520190612232565b34610276576040600319360112610276576004356122be816103c9565b60243567ffffffffffffffff8111610276576122de903690600401611021565b6122e661310e565b68929eee149b4bd2126892308454146104aa573084557fffffffff000000000000000000000000000000000000000000000000000000006123278385612c4e565b16917f27ea6f2b000000000000000000000000000000000000000000000000000000008314801561243e575b8015612415575b156123eb57600073ffffffffffffffffffffffffffffffffffffffff81957ff2fde38b000000000000000000000000000000000000000000000000000000008396146123de575b6123b060405180958193612c92565b0393165af1906123be612ca0565b91156123d7573890556040519081906107599082612290565b5060208101fd5b6123e661312a565b6123a1565b60046040517fc55dde3d000000000000000000000000000000000000000000000000000000008152fd5b507f02329a2900000000000000000000000000000000000000000000000000000000831461235a565b507ff2fde38b000000000000000000000000000000000000000000000000000000008314612353565b346102765760006003193601126102765760206040517f94fb01b7061fcfca7a3e92b7604dda2f7f5f098146840ac40016cda24c3a88598152f35b3461027657600060031936011261027657602073ffffffffffffffffffffffffffffffffffffffff7fa850f9cb190d34eca968aeee8c951b4765e62744d7c13847a3ad392ad86491065416604051908152f35b60206003193601126102765760043561250d816103c9565b61251561312a565b63389a75e1600c52806000526020600c20908154421161253b576000610912925561348d565b636f5e88186000526004601cfd5b7f4e487b7100000000000000000000000000000000000000000000000000000000600052604160045260246000fd5b67ffffffffffffffff811161258c57604052565b612549565b6040810190811067ffffffffffffffff82111761258c57604052565b90601f7fffffffffffffffffffffffffffffffffffffffffffffffffffffffffffffffe0910116810190811067ffffffffffffffff82111761258c57604052565b67ffffffffffffffff811161258c57601f017fffffffffffffffffffffffffffffffffffffffffffffffffffffffffffffffe01660200190565b81601f820112156102765780359061263f826125ee565b9261264d60405194856125ad565b8284526020838301011161027657816000926020809301838601378301015290565b346102765760806003193601126102765760043561268c816103c9565b67ffffffffffffffff90602435828111610276576126ae903690600401612628565b91604435908111610276576126c7903690600401612628565b60643590600582101561027657610759936126e193612cd0565b60405173ffffffffffffffffffffffffffffffffffffffff90911681529081906020820190565b602060031936011261027657600435612720816103c9565b61272861312a565b8060601b1561273a576109129061348d565b637448fbae6000526004601cfd5b3461027657608060031936011261027657600435612765816103c9565b60243590612772826103c9565b60443561277e816103c9565b6064359061278b826103c9565b7ff0c57e16840df040f15088dc2f81fe391c3923bec73e23a9662efc9c229c6a00549367ffffffffffffffff60ff8660401c1615951680159081612958575b600114908161294e575b159081612945575b5061291b5761283e93856128357ff0c57e16840df040f15088dc2f81fe391c3923bec73e23a9662efc9c229c6a0060017fffffffffffffffffffffffffffffffffffffffffffffffff0000000000000000825416179055565b6128bf57612f91565b61284457005b6128907ff0c57e16840df040f15088dc2f81fe391c3923bec73e23a9662efc9c229c6a007fffffffffffffffffffffffffffffffffffffffffffffff00ffffffffffffffff8154169055565b604051600181527fc7f505b2f371ae2175ee4913f4499e1f2633a7b5936321eed1cdaeb6115181d290602090a1005b6129167ff0c57e16840df040f15088dc2f81fe391c3923bec73e23a9662efc9c229c6a00680100000000000000007fffffffffffffffffffffffffffffffffffffffffffffff00ffffffffffffffff825416179055565b612f91565b60046040517ff92ee8a9000000000000000000000000000000000000000000000000000000008152fd5b905015386127dc565b303b1591506127d4565b8691506127ca565b346102765760206003193601126102765760043561297d816103c9565b63389a75e1600c52600052602080600c2054604051908152f35b7f4e487b7100000000000000000000000000000000000000000000000000000000600052601160045260246000fd5b7fffffffffffffffffffffffffffffffffffffffffffffffffffffffffffffffff81146129f35760010190565b612997565b90604051918281549182825260209260208301916000526020600020936000905b828210612a3157505050612a2f925003836125ad565b565b855473ffffffffffffffffffffffffffffffffffffffff1684526001958601958895509381019390910190612a19565b90816020910312610276575190565b6040513d6000823e3d90fd5b612add9073ffffffffffffffffffffffffffffffffffffffff91829173ffffffffffffffffffffffffffffffffffffffff166000527fa850f9cb190d34eca968aeee8c951b4765e62744d7c13847a3ad392ad8649103602052604060002090565b541690600182148015612b1b575b612af3575090565b90507fa850f9cb190d34eca968aeee8c951b4765e62744d7c13847a3ad392ad8649105541690565b508115612aeb565b907fffffffffffffffffffffffffffffffffffffffffffffffffffffffffffffffff82019182116129f357565b919082039182116129f357565b908160209103126102765751611ce98161026c565b67ffffffffffffffff811161258c5760051b60200190565b90612b9482612b72565b612ba160405191826125ad565b8281527fffffffffffffffffffffffffffffffffffffffffffffffffffffffffffffffe0612bcf8294612b72565b0190602036910137565b7f4e487b7100000000000000000000000000000000000000000000000000000000600052603260045260246000fd5b8054821015612c205760005260206000200190600090565b612bd9565b8051821015612c205760209160051b010190565b908160209103126102765751611ce9816103c9565b7fffffffff000000000000000000000000000000000000000000000000000000009035818116939260048110612c8357505050565b60040360031b82901b16169150565b908092918237016000815290565b3d15612ccb573d90612cb1826125ee565b91612cbf60405193846125ad565b82523d6000602084013e565b606090565b9291612d6f90612cde61310e565b612d3f604051937f8420ce9900000000000000000000000000000000000000000000000000000000602086015230602486015273ffffffffffffffffffffffffffffffffffffffff809716604486015260a0606486015260c4850190612232565b907fffffffffffffffffffffffffffffffffffffffffffffffffffffffffffffffdc848303016084850152612232565b6005831015612e625781612db291612db79460a4830152037fffffffffffffffffffffffffffffffffffffffffffffffffffffffffffffffe081018352826125ad565b613979565b90612dc182612e91565b8116612e3a612e0f8273ffffffffffffffffffffffffffffffffffffffff166000527fa850f9cb190d34eca968aeee8c951b4765e62744d7c13847a3ad392ad8649103602052604060002090565b60017fffffffffffffffffffffffff0000000000000000000000000000000000000000825416179055565b7f2cd7a531712f8899004c782d9607e0886d1dbc91bfac7be88dadf6750d9e1419600080a290565b7f4e487b7100000000000000000000000000000000000000000000000000000000600052602160045260246000fd5b7fa850f9cb190d34eca968aeee8c951b4765e62744d7c13847a3ad392ad86491049081546801000000000000000081101561258c5760018101808455811015612c2057612a2f926000527fcc963e9281187e610857e988900b0c72937ebb5122acc7f351ae2143b44e4682019073ffffffffffffffffffffffffffffffffffffffff167fffffffffffffffffffffffff0000000000000000000000000000000000000000825416179055565b908154916801000000000000000083101561258c5782612f65916001612a2f95018155612c08565b90919073ffffffffffffffffffffffffffffffffffffffff8084549260031b9316831b921b1916179055565b919261303d90337fffffffffffffffffffffffffffffffffffffffffffffffffffffffff74873927553360007f8be0079c531659141344cd1fd0a4f28419497f9722a3daafe3b4186f6b6457e08180a3612fe9613cfc565b612ff1613cfc565b7fcd5ed15c6e187e77e9aee88184c21f4f2182ab5827cb3b7e07fbedcd63f033007fffffffffffffffffffffffffffffffffffffffffffffffffffffffffffffff008154169055613a20565b73ffffffffffffffffffffffffffffffffffffffff80911680158015613104575b6108d0577fffffffffffffffffffffffff000000000000000000000000000000000000000092827fa850f9cb190d34eca968aeee8c951b4765e62744d7c13847a3ad392ad86491069116848254161790557fa850f9cb190d34eca968aeee8c951b4765e62744d7c13847a3ad392ad864910590838254161790557fa850f9cb190d34eca968aeee8c951b4765e62744d7c13847a3ad392ad8649107921690825416179055565b508183161561305e565b638b78c6d8600c523360005260016020600c2054161561312a57565b7fffffffffffffffffffffffffffffffffffffffffffffffffffffffff7487392754330361315457565b6382b429006000526004601cfd5b60ff7fcd5ed15c6e187e77e9aee88184c21f4f2182ab5827cb3b7e07fbedcd63f03300541661318d57565b60046040517fd93c0665000000000000000000000000000000000000000000000000000000008152fd5b919073ffffffffffffffffffffffffffffffffffffffff808216938161321c8673ffffffffffffffffffffffffffffffffffffffff166000527fa850f9cb190d34eca968aeee8c951b4765e62744d7c13847a3ad392ad8649103602052604060002090565b5416156107f55761322b613162565b6040517f6e553f650000000000000000000000000000000000000000000000000000000081526004810185905273ffffffffffffffffffffffffffffffffffffffff8216602482015295602090818860448160008b5af197881561079c576000986133c8575b5087106107a15786906132db611f467fa850f9cb190d34eca968aeee8c951b4765e62744d7c13847a3ad392ad86491075473ffffffffffffffffffffffffffffffffffffffff1690565b848116613326575b5050613311907f83649150bdd58105340dec5a5cb506f0120caf3493d753ad77584107a39bd8ab94836137c4565b6040805194855260208501879052911692a390565b9080925060405180927f60cfb2040000000000000000000000000000000000000000000000000000000082528180613360600482016133e7565b03915afa91821561079c576000926133ab575b5050613381578538806132e3565b60046040517fbf2af50b000000000000000000000000000000000000000000000000000000008152fd5b6133c19250803d106107955761078681836125ad565b3880613373565b6133e0919850823d8411610dee57610ddf81836125ad565b9638613291565b60208082016020835260407fa850f9cb190d34eca968aeee8c951b4765e62744d7c13847a3ad392ad864910493845480935201926000527fcc963e9281187e610857e988900b0c72937ebb5122acc7f351ae2143b44e4682916000905b828210613452575050505090565b835473ffffffffffffffffffffffffffffffffffffffff1685529384019360019384019390910190613444565b3560ff811681036102765790565b73ffffffffffffffffffffffffffffffffffffffff167fffffffffffffffffffffffffffffffffffffffffffffffffffffffff748739278181547f8be0079c531659141344cd1fd0a4f28419497f9722a3daafe3b4186f6b6457e0600080a355565b80548015613547577fffffffffffffffffffffffffffffffffffffffffffffffffffffffffffffffff01906135248282612c08565b73ffffffffffffffffffffffffffffffffffffffff82549160031b1b1916905555565b7f4e487b7100000000000000000000000000000000000000000000000000000000600052603160045260246000fd5b906135c08273ffffffffffffffffffffffffffffffffffffffff166000527fa850f9cb190d34eca968aeee8c951b4765e62744d7c13847a3ad392ad8649101602052604060002090565b5460005b81811061368d575b146136635761362261361d8373ffffffffffffffffffffffffffffffffffffffff166000527fa850f9cb190d34eca968aeee8c951b4765e62744d7c13847a3ad392ad8649101602052604060002090565b6134ef565b73ffffffffffffffffffffffffffffffffffffffff80911691167f9e25d47fe44f72bbfc771d4f757099705a2e862d984092e6b59663d1f9af4ff4600080a3565b60046040517fdee790fb000000000000000000000000000000000000000000000000000000008152fd5b6136dd611ead82611ea88773ffffffffffffffffffffffffffffffffffffffff166000527fa850f9cb190d34eca968aeee8c951b4765e62744d7c13847a3ad392ad8649101602052604060002090565b73ffffffffffffffffffffffffffffffffffffffff808516911614613704576001016135c4565b6137b2613765611ead6137568773ffffffffffffffffffffffffffffffffffffffff166000527fa850f9cb190d34eca968aeee8c951b4765e62744d7c13847a3ad392ad8649101602052604060002090565b61375f86612b23565b90612c08565b612f6583611ea88873ffffffffffffffffffffffffffffffffffffffff166000527fa850f9cb190d34eca968aeee8c951b4765e62744d7c13847a3ad392ad8649101602052604060002090565b6135cc565b919082018092116129f357565b73ffffffffffffffffffffffffffffffffffffffff8116156108d05782156107cb57613833826105ba8373ffffffffffffffffffffffffffffffffffffffff166000527fa850f9cb190d34eca968aeee8c951b4765e62744d7c13847a3ad392ad8649100602052604060002090565b5415613896575b613892916105ba61388a9273ffffffffffffffffffffffffffffffffffffffff166000527fa850f9cb190d34eca968aeee8c951b4765e62744d7c13847a3ad392ad8649100602052604060002090565b9182546137b7565b9055565b60206138e18273ffffffffffffffffffffffffffffffffffffffff166000527fa850f9cb190d34eca968aeee8c951b4765e62744d7c13847a3ad392ad8649101602052604060002090565b54101561394f57816105ba826139456138929561394061388a9673ffffffffffffffffffffffffffffffffffffffff166000527fa850f9cb190d34eca968aeee8c951b4765e62744d7c13847a3ad392ad8649101602052604060002090565b612f3d565b925050915061383a565b60046040517f63923f0e000000000000000000000000000000000000000000000000000000008152fd5b6040519061053b908183019083821067ffffffffffffffff83111761258c5760406139b5928594613ee586393081528160208201520190612232565b03906000f0801561079c5773ffffffffffffffffffffffffffffffffffffffff1690565b638b78c6d8600c526000526020600c2090815490811618809155600c5160601c7f715ad5ce61fc9595c7b415289d59cf203f23a94fa06f04af7e489a0a76e1fe26600080a3565b638b78c6d8600c526000526020600c206001815417809155600c5160601c7f715ad5ce61fc9595c7b415289d59cf203f23a94fa06f04af7e489a0a76e1fe26600080a3565b60405190613a7282612591565b600d82527f4d61645f5661756c745f537570000000000000000000000000000000000000006020830152565b60405190613aab82612591565b600282527f76310000000000000000000000000000000000000000000000000000000000006020830152565b909594939291428410613cd257613c8795613c5f92613c6b92613c1b613afb613a65565b97613c0f89516020809b012095613b10613a9e565b8051908c0120604080517f3cb138da6d2d7fa0e45d63ba80d5c0902dc0f5c3cc8ce33bcfe31dc017a3a412818f01908152602081019a909a5290890191909152466060890152306080890152968760a082010397613b947fffffffffffffffffffffffffffffffffffffffffffffffffffffffffffffffe0998a81018352826125ad565b519020996040519586948d8601988993917fffffffffffffffffffffffffffffffffffffffff00000000000000000000000060b49694927f94fb01b7061fcfca7a3e92b7604dda2f7f5f098146840ac40016cda24c3a8859875260601b16602086015260348501526054840152607483015260948201520190565b038481018352826125ad565b519020604051938491878301968790916042927f19010000000000000000000000000000000000000000000000000000000000008352600283015260228201520190565b039081018352826125ad565b51902090613c788361347f565b90604084013593013591613d55565b73ffffffffffffffffffffffffffffffffffffffff918216911603613ca857565b60046040517f8baa579f000000000000000000000000000000000000000000000000000000008152fd5b60046040517faf04a38e000000000000000000000000000000000000000000000000000000008152fd5b60ff7ff0c57e16840df040f15088dc2f81fe391c3923bec73e23a9662efc9c229c6a005460401c1615613d2b57565b60046040517fd7e6bcf8000000000000000000000000000000000000000000000000000000008152fd5b91611ce99391613d6493613d6d565b90929192613e0d565b91907f7fffffffffffffffffffffffffffffff5d576e7357a4501ddfe92f46681b20a08411613df257926020929160ff608095604051948552168484015260408301526060820152600092839182805260015afa1561079c57805173ffffffffffffffffffffffffffffffffffffffff811615613de957918190565b50809160019190565b50505060009160039190565b60041115613e0857565b612e62565b613e1681613dfe565b80613e1f575050565b613e2881613dfe565b60018103613e5a5760046040517ff645eedf000000000000000000000000000000000000000000000000000000008152fd5b613e6381613dfe565b60028103613e9d576040517ffce698f700000000000000000000000000000000000000000000000000000000815260048101839052602490fd5b80613ea9600392613dfe565b14613eb15750565b6040517fd78bce0c0000000000000000000000000000000000000000000000000000000081526004810191909152602490fdfe60a060409080825261053b803803809161001982856102ae565b8339810182828203126101e95761002f826102e7565b60208084015191939091906001600160401b0382116101e9570182601f820112156101e957805190610060826102fb565b9361006d875195866102ae565b8285528383830101116101e957829060005b83811061029a57505060009184010152823b1561027a577fa3f0ad74e5423aebfd80d3ef4346578335a9a72aeaee59ff6cb3582b35133d5080546001600160a01b0319166001600160a01b038581169182179092558551635c60da1b60e01b8082529194928482600481895afa91821561026f57600092610238575b50813b1561021f5750508551847f1cf3b03a6cf19fa2baba4df148e9dcabedea7f8a5c07840e207e5c089be95d3e600080a282511561020057508290600487518096819382525afa9283156101f5576000936101b3575b5091600080848461019096519101845af4903d156101aa573d610174816102fb565b90610181885192836102ae565b8152600081943d92013e610316565b505b608052516101c1908161037a82396080518160450152f35b60609250610316565b92508183813d83116101ee575b6101ca81836102ae565b810103126101e9576000806101e1610190956102e7565b945050610152565b600080fd5b503d6101c0565b85513d6000823e3d90fd5b9350505050346102105750610192565b63b398979f60e01b8152600490fd5b8751634c9c8ce360e01b81529116600482015260249150fd5b9091508481813d8311610268575b61025081836102ae565b810103126101e957610261906102e7565b90386100fb565b503d610246565b88513d6000823e3d90fd5b8351631933b43b60e21b81526001600160a01b0384166004820152602490fd5b81810183015186820184015284920161007f565b601f909101601f19168101906001600160401b038211908210176102d157604052565b634e487b7160e01b600052604160045260246000fd5b51906001600160a01b03821682036101e957565b6001600160401b0381116102d157601f01601f191660200190565b9061033d575080511561032b57805190602001fd5b604051630a12f52160e11b8152600490fd5b81511580610370575b61034e575090565b604051639996b31560e01b81526001600160a01b039091166004820152602490fd5b50803b1561034656fe6080806040527f5c60da1b00000000000000000000000000000000000000000000000000000000815260208160048173ffffffffffffffffffffffffffffffffffffffff7f0000000000000000000000000000000000000000000000000000000000000000165afa90811561010e5760009161007c575b5061016c565b905060203d602011610107575b7fffffffffffffffffffffffffffffffffffffffffffffffffffffffffffffffe0601f82011682019180831067ffffffffffffffff8411176100d8576100d2926040520161011a565b38610076565b7f4e487b7100000000000000000000000000000000000000000000000000000000600052604160045260246000fd5b503d610089565b6040513d6000823e3d90fd5b7fffffffffffffffffffffffffffffffffffffffffffffffffffffffffffffff8060209101126101675760805173ffffffffffffffffffffffffffffffffffffffff811681036101675790565b600080fd5b6000808092368280378136915af43d82803e15610187573d90f35b3d90fdfea26469706673582212204ea8a93ed4a489c4ae3d4436fbc79e58c8bd9adac3a31162b112995e6264899d64736f6c63430008190033a2646970667358221220b6b7b733b5bfb047514c7297746cfb2c80e82466be30fc249d3639f61f16524364736f6c63430008190033","linkReferences":{}},"methodIdentifiers":{"SIGNED_DEPOSIT_TYPEHASH()":"e4af8b22","cancelOwnershipHandover()":"54d1f13d","changeImplementation(address)":"17a68dd8","changeImplementationForVault(address,address)":"aa0a050c","completeOwnershipHandover(address)":"f04e283e","delegationManager()":"ea4d3c9b","deployVault(address,string,string,uint8)":"f0edf6aa","deposit(address,uint256,uint256)":"0efe6a8b","depositAndGimmie(address,uint256,uint256)":"17070f02","depositWithSignature(address,address,uint256,uint256,uint256,(uint8,bytes32,bytes32),(uint8,bytes32,bytes32))":"2b93e0a2","getDeposits(address)":"94f649dd","getUserNonce(address)":"6834e3a8","getVaults()":"44d00f82","gimmieShares(address,uint256)":"7fb2a0a1","grantRoles(address,uint256)":"1c10893f","hasAllRoles(address,uint256)":"1cd64df4","hasAnyRole(address,uint256)":"514e62fc","implementation()":"5c60da1b","implementation(address)":"6b880718","initialize(address,address,address,address)":"f8c8765e","owner()":"8da5cb5b","ownershipHandoverExpiresAt(address)":"fee81cf4","pause(bool)":"02329a29","paused()":"5c975abb","proxiableUUID()":"52d1902d","redeemShares(address,address,uint256)":"51ffb74a","removeShares(address,address,uint256)":"8c80d4e5","renounceOwnership()":"715018a6","renounceRoles(uint256)":"183a4f6e","requestOwnershipHandover()":"25692962","returnShares(address,uint256)":"8b198025","revokeRoles(address,uint256)":"4a4ee7b1","rolesOf(address)":"2de94807","runAdminOperation(address,bytes)":"c1f09e30","setLimiter(address)":"7a29084c","transferOwnership(address)":"f2fde38b","upgradeToAndCall(address,bytes)":"4f1ef286"},"id":84}